:020000040000FA
:100000000C94F3020C941B030C941B030C941B0321
:100010000C941B030C941B030C941B030C941B03E8
:100020000C941B030C941B030C941B030C941B03D8
:100030000C941B030C941B030C941B030C941B03C8
:100040000C9422050C941B030C941B030C941B03AF
:100050000C941B030C941B030C941B030C941B03A8
:100060000C941B030C941B034602000000FF0800C5
:10007000053E5B4F5B3E053E6B4F6B3E051C3E7C79
:100080003E1C05183C7E3C18051C577D571C051C62
:100090005E7F5E1C0400183C1805FFE7C3E7FF0401
:1000A0000018241805FFE7DBE7FF0530483A060E85
:1000B00005262979292605407F05050705407F0586
:1000C000253F055A3CE73C5A057F3E1C1C080508A5
:1000D0001C1C3E7F0514227F221405FFFFFFFFFF3B
:1000E00005F0F0F0F0F003FFFFFF05000000FFFF58
:1000F000050F0F0F0F0F0508047E04080510207E62
:1001000020100508082A1C0805081C2A080805AA4A
:10011000005500AA05AA55AA55AA0530383E383020
:1001200005060E3E0E06020000015F0307000705EC
:10013000147F147F1405444AFF4A32056313086490
:10014000630536494936480107033E4141034141B1
:100150003E05082A1C2A080508083E08080260E037
:100160000408080808026060056010080403053EE2
:100170005149453E0304027F0571494949460541FD
:1001800049494936050F0808087F054F4949493153
:10019000053E4949493005030101017F05364949BA
:1001A000493605064949493E026C6C026CEC03086D
:1001B0001422041414141403221408050159090903
:1001C00006053E415D594E057E0909097E057F49B8
:1001D000494936053E41414141057F4141413E0586
:1001E0007F49494941057F09090901053E414149C6
:1001F00079057F0808087F03417F4105304141416F
:100200003F057F08142241057F40404040057F02A2
:100210000C027F057F0408107F053E4141413E05E9
:100220007F09090906053E4141617E057F091929BB
:10023000460546494949310501017F0101053F4015
:1002400040403F051F2040201F053F4038403F05EC
:1002500063140814630503047804030561514945D8
:1002600043037F41410503040810600341417F05BA
:100270000402010204048080808003010204043827
:1002800044447C047F44443804384444440438449F
:10029000447F043854545804047E05010418A4A46F
:1002A0007C047F040478017D0384857C047F10280E
:1002B00044017F057C04780478047C0404780438C5
:1002C00044443804FC24241804182424FC047C042A
:1002D0000408045854543403047F04043C40407C14
:1002E000041C20407C053C4030403C046C10106CE9
:1002F000041CA0A07C046454544C04083641410101
:100300007F04414136080402010201057F41414159
:100310007F053E55555541053844443844057C2AEF
:100320002A3E14057E0202060605027E027E0205B2
:100330006355494163053844443C0405407E201E12
:10034000200506027E0202086313086463006060F1
:10035000052A2A2A2A2A03514A4403444A510500FD
:1003600000FF010303E080FF053612362436030246
:100370000502021818021010053040FF0101041F89
:1003800001011E000000000901017F017F020C0233
:100390007F0000000000000100017D0418247E247D
:1003A00004447E454105221C141C2205012A7C2A96
:1003B000010177044E55553903020002077E81BDC5
:1003C000A5A5817E0326292F0508142A14220408D6
:1003D00008081803080808077E81BD95A9817E05D5
:1003E00001010101010302050203242E2403191552
:1003F000120315150A02020104F8204078050609C7
:100400007F017F021818040080A0C003121F100390
:100410002629260522142A140808402F1008041E35
:10042000117C08402F10080462554C0915553F10E7
:1004300008041E117C053048484D400578151614F7
:1004400078057814161578057A1514157A05781636
:10045000151679057815141578057814151478078C
:100460007E09097F494941059EA1612121057C54EE
:10047000554644057C54564544057E55544546052D
:100480007C5554454403457E4403447E4503467DE4
:100490004603457C4505087F49413E057C0A1122FB
:1004A0007D053844454638053844464538053A45C3
:1004B00044453A05384645463905384544453805EA
:1004C0002214081422057C625A463E053C404142F3
:1004D0003C053C4042413C053C4241423C053C41DC
:1004E00040413C0502047A0502043F12120C057ECD
:1004F00049494E30043845467C043844467D04382A
:1005000046457E043A45467D043845447D04304ADC
:100510004D7A0720545438545458049CA262220443
:10052000385556580438545659043856555A0438D4
:1005300055545902017A027A0103027902030278C2
:100540000204304B4B3C047A090A710430494A30AA
:100550000430484A3104304A49320432494A3104AD
:10056000394444390508082A08080438544C38042A
:10057000384142780438404279043842417A043A9A
:1005800040407A0418A0A27904FC282810041AA07C
:10059000A07A000000080002010000030407000028
:1005A00000000000000000000000250028002B00D3
:1005B00000000000240027002A00040404040404AE
:1005C0000404020202020202030303030303010202
:1005D00004081020408001020408102001020408D1
:1005E000102084079C0711241FBECFEFD8E0DEBF88
:1005F000CDBF21E0A6E0B1E001C01D92A833B20753
:10060000E1F711E0A0E0B1E0ECEFF1E102C005900C
:100610000D92A630B107D9F712E0C2EFD2E004C0C4
:100620002197FE010E94BF07C13FD107C9F70E9471
:100630006C050C94F1080C94000090E0FC01E2536E
:10064000FA4F249186549A4FFC018491882399F0A3
:1006500090E0880F991FFC01E055FA4FA591B491E5
:10066000FC01EA55FA4F859194918FB7F894EC917B
:10067000E22BEC938FBF089590E0FC01EE56FA4F09
:100680002491FC01E253FA4F3491FC01E654FA4FF5
:10069000E491EE23C9F0222339F0233001F1A8F4CC
:1006A000213019F1223029F1F0E0EE0FFF1FEA5559
:1006B000FA4FA591B4918FB7F894EC91611126C0CF
:1006C00030953E233C938FBF08952730A9F0283002
:1006D000C9F0243049F7809180008F7D03C080915C
:1006E00080008F7780938000DFCF84B58F7784BDC3
:1006F000DBCF84B58F7DFBCF8091B0008F77809367
:10070000B000D2CF8091B0008F7DF9CF3E2BDACFF1
:10071000EF92FF920F931F93CF93DF9380911B0172
:100720008823A1F080911201882361F08FB7F8949B
:1007300090911201913071F59DB3909311019DB389
:100740009DBB8FBF80E58CBD81E08DBD60E0809159
:100750001A010E943C0380911B018823F1F030E0D4
:1007600020E080911E0190E0880F991F281739071B
:1007700008F03DC0E0912101F0912201E20FF31F4A
:1007800080818EBD00000DB407FEFDCF8EB52F5FBA
:100790003F4FE7CF80931101D5CFD0E0C0E08091EB
:1007A0001E0190E0880F991FC817D90700F5E09146
:1007B0002101F0912201EC0FFD1F0081F090190141
:1007C000E090180118E0602F661F6627661F8E2DC7
:1007D0000E943C03000F61E08F2D0E943C0360E00B
:1007E0008F2D0E943C03115071F72196D8CF61E004
:1007F00080911A010E943C0380911B01882371F0B3
:1008000080911201882351F09FB7F8942091120132
:1008100080911101213049F48DBB9FBFDF91CF91B1
:100820001F910F91FF90EF9008958FBFF7CFE3E1F5
:10083000F1E0438550E0440F551F70E060E086858D
:1008400097850C94EA08EF92FF920F931F93CF9332
:10085000DF93FF24F394D0E0C0E001E010E0B9E0C2
:10086000EB2E0E94170498010C2E02C0220F331F9A
:100870000A94E2F7E0E090E080911E01E817E0F5CD
:10088000EE9DB0011124A0911F01B0912001A60F8F
:10089000B71F18964C9150E042235323452B51F13A
:1008A0004E2F50E08150990B841B950B880F991F98
:1008B000A0912101B0912201A80FB91FFC92A09133
:1008C0001F01B0912001A60FB71FAC0FBD1F6C9187
:1008D00080911E018150990B841B950B880F991FE5
:1008E0004091210150912201840F951FDC01119646
:1008F0006C9391E0EF5FC0CF91110E948803219625
:10090000F394C830D10509F0ACCF80E099E0209194
:100910001E01821758F4E0911F01F0912001899F78
:10092000E00DF11D112410868F5FF1CFDF91CF9183
:100930001F910F91FF90EF900895FF920F931F93D7
:10094000CF93DF938A30910508F061C08B01EC01F1
:10095000F0901E010E94170440E0E02F5FEF5F0D52
:10096000C230D10509F449C088F42097E9F08E2FF0
:100970009BE0C130D105F1F04F5F541788F7DF914C
:10098000CF911F910F91FF900C948803C330D10534
:10099000B9F1C430D10581F781E00115110509F4E1
:1009A00080E0819599E006C081E00115110509F00C
:1009B00080E09CE0642F70E020911E012150330BF9
:1009C000261B370B220F331FA0912101B09122016A
:1009D000A20FB31F9C9320911E012150330B261BA5
:1009E000370B220F331F6091210170912201260FD6
:1009F000371FD90111968C93BFCF8E2F9AE0DACF93
:100A000081E00115110509F480E09FE0D3CF21E0DA
:100A10006130710509F020E00B9761F02093270108
:100A20006130710549F4DF91CF911F910F91FF90D3
:100A30000C94230420932801DF91CF911F910F91F3
:100A4000FF9008951F920F920FB60F9211242F93CB
:100A50003F938F939F93AF93BF9380910D0190919C
:100A60000E01A0910F01B091100130910C0123E013
:100A7000230F2D3758F50196A11DB11D20930C01B0
:100A800080930D0190930E01A0930F01B09310017C
:100A90008091080190910901A0910A01B0910B0188
:100AA0000196A11DB11D8093080190930901A093A7
:100AB0000A01B0930B01BF91AF919F918F913F912C
:100AC0002F910F900FBE0F901F90189526E8230FBF
:100AD0000296A11DB11DD2CF789484B5826084BDE9
:100AE00084B5816084BD85B5826085BD85B5816032
:100AF00085BD80916E00816080936E0010928100B0
:100B0000809181008260809381008091810081606A
:100B1000809381008091800081608093800080912B
:100B2000B10084608093B1008091B00081608093B7
:100B3000B00080917A00846080937A0080917A007E
:100B4000826080937A0080917A00816080937A003D
:100B500080917A00806880937A001092C100809121
:100B60001B01882309F4C0C0CFB7F8948091070116
:100B7000811124C0E4ECF5E08491E8EDF5E0949176
:100B8000E82FF0E0EE0FFF1FE055FA4FA591B4916A
:100B9000EC91E92321F461E08AE00E943C038AE0C1
:100BA0000E941D038CB580618CBD8CB580648CBDAA
:100BB0008DE00E941D038BE00E941D0380910701C0
:100BC0008F5F80930701CFBF80911A010E941D03A0
:100BD00061E080911A010E943C031092240110925E
:100BE00023011092260110922501809129019091F4
:100BF0002A018856904009F49AC0E8E6F0E0F093A4
:100C00002A01E093290110922B0188E080932C01A6
:100C100010922F0110922E018FEF90E090933101EE
:100C2000809330011092330110923201E491E63446
:100C300009F033C0E9E6F0E0E491E13009F45DC089
:100C400082E090E0E23029F5EAE6F0E08491EBE61C
:100C5000F0E0E49190E0982F88278E0F911D9093FB
:100C60002F0180932E01ECE6F0E08491EDE6F0E0B8
:100C7000E49190E0982F88278E0F911D9093310179
:100C800080933001EEE6F0E0E491E0932C0187E000
:100C900090E09093330180933201C0903201D09064
:100CA0003301F12CE12C20912E0130912F01409144
:100CB00030015091310160E04217530708F435C00C
:100CC000F601E859FF4F8491681708F4682F90E007
:100CD000B0E0A0E00196A11DB11DC80ED91EEA1E0C
:100CE000FB1E2F5F3F4FE8CF809118010E941D032C
:100CF000809119010E941D0367CFEAE6F0E0E491BC
:100D0000F0E0F0932F01E0932E01EBE6F0E0E491A8
:100D1000F0E0F0933101E0933001ECE6F0E0E49193
:100D2000E0932C0185E090E0B4CF60932D01C09159
:100D30001E0179E0C79FC00111240E94C5078C01E4
:100D40009093200180931F018C2F90E0880F991FB2
:100D50000E94C5079093220180932101892B09F4F9
:100D600051C0012B09F44EC070E060E083E090E0D8
:100D70000E949D0467E070E081E090E00E949D0485
:100D800067E070E082E090E00E949D0470E060E027
:100D900084E090E00E949D0490911E01915080E0BB
:100DA00069E058E04FEF869F90011124A0911F0148
:100DB000B0912001A20FB31FFD01752F11927A95FA
:100DC000E9F7E0911F01F0912001E20FF31F408746
:100DD0008F5F981740F78091270181110E942304AB
:100DE00070E060E090E080E00E949D0470E060E0D0
:100DF0008BE090E00E949D0461E070E08AE090E06A
:100E00000E949D0400E010E080911E01882309F4F7
:100E100070C0E0911F01F091200180911701909125
:100E2000160130E020E0882311F027E030E0E20FE7
:100E3000F31F8081992309F463C090E8892B808394
:100E4000E0911F01F0912001808590911701992375
:100E500009F458C090E8892B808780912701882366
:100E600009F447C080911E01882309F442C0D0E0F4
:100E7000C0E0FC2EF394E0911F01F09120018085E9
:100E800090E00C2E02C0959587950A94E2F780FFBA
:100E900027C00E94170480911E018150990B880F72
:100EA000991F2091210130912201820F931FFC0193
:100EB000F082E0911F01F0912001EC0FFD1F4081B5
:100EC00080911E018150990B880F991F209121015B
:100ED00030912201820F931FFC0141830E948803FD
:100EE0002196C830D10529F6E0911F01F09120012B
:100EF00010860115110509F487CF0E94000084CFE8
:100F000091E09CCF91E0A7CFE3E1F1E08BE0858316
:100F10008DE086838AE08783108686E091E0928761
:100F2000818781E08387848B22E030E031832083D6
:100F3000828383831482089580911B01882399F012
:100F40009FB7F89480910701882319F0815080930E
:100F5000070180910701811105C08CB58F7B8CBD85
:100F6000109212019FBF80911F01909120010E9459
:100F7000610880912101909122010C946108EE0F8B
:100F8000FF1F0590F491E02D09940F931F93CF93C9
:100F9000DF938230910510F482E090E0E091360119
:100FA000F091370130E020E0B0E0A0E0309799F414
:100FB0002115310509F44AC0281B390B24303105AD
:100FC000D8F58A819B816115710589F1FB019383B5
:100FD0008283FE0111C04081518102811381481733
:100FE0005907E0F04817590799F4109761F01296E5
:100FF0000C93129713961C933296CF01DF91CF91E9
:101000001F910F9108950093360110933701F4CF8B
:101010002115310551F04217530738F0A901DB01C2
:101020009A01BD01DF01F801C1CFEF01F9CF909323
:10103000370180933601CDCFFE01E20FF31F81937C
:1010400091932250310939832883D7CF20913401DD
:1010500030913501232B41F420910201309103019D
:10106000309335012093340120910001309101012A
:101070002115310541F42DB73EB74091040150913F
:101080000501241B350BE0913401F0913501E21785
:10109000F307A0F42E1B3F0B2817390778F0AC019B
:1010A0004E5F5F4F2417350748F04E0F5F1F509378
:1010B000350140933401819391939FCFF0E0E0E0BC
:1010C0009CCFCF93DF930097E9F0FC013297138216
:1010D0001282A0913601B0913701ED0130E020E09D
:1010E0001097A1F420813181820F931F2091340148
:1010F000309135012817390709F061C0F0933501A7
:10110000E0933401DF91CF910895EA01CE17DF0714
:10111000E8F54A815B819E0141155105B1F7E9016E
:10112000FB83EA8349915991C40FD51FEC17FD0742
:1011300061F4808191810296840F951FE901998362
:101140008883828193819B838A83F0E0E0E012961A
:101150008D919C9113970097B9F52D913C91119722
:10116000CD010296820F931F2091340130913501F9
:101170002817390739F6309751F510923701109238
:101180003601B0933501A0933401BCCFD383C28321
:1011900040815181840F951FC817D90761F44E5FB4
:1011A0005F4F88819981480F591F518340838A81FD
:1011B0009B81938382832115310509F0B0CFF09391
:1011C0003701E09336019ECFFD01DC01C0CF1382D1
:1011D0001282D7CFDC0101C06D9341505040E0F73F
:1011E000089512E0C2EFD2E004C0FE010E94BF07E2
:1011F0002196C33FD107C9F7F894FFCF000038010B
:0212000080006C
:107E0000112484B714BE81FFF0D085E080938100F7
:107E100082E08093C00088E18093C10086E0809377
:107E2000C20080E18093C4008EE0C9D0259A86E02C
:107E300020E33CEF91E0309385002093840096BBD3
:107E4000B09BFECF1D9AA8958150A9F7CC24DD24C4
:107E500088248394B5E0AB2EA1E19A2EF3E0BF2EE7
:107E6000A2D0813461F49FD0082FAFD0023811F036
:107E7000013811F484E001C083E08DD089C08234E0
:107E800011F484E103C0853419F485E0A6D080C0E4
:107E9000853579F488D0E82EFF2485D0082F10E0AE
:107EA000102F00270E291F29000F111F8ED06801E7
:107EB0006FC0863521F484E090D080E0DECF843638
:107EC00009F040C070D06FD0082F6DD080E0C81688
:107ED00080E7D80618F4F601B7BEE895C0E0D1E017
:107EE00062D089930C17E1F7F0E0CF16F0E7DF06D8
:107EF00018F0F601B7BEE89568D007B600FCFDCFD4
:107F0000A601A0E0B1E02C9130E011968C91119780
:107F100090E0982F8827822B932B1296FA010C0160
:107F200087BEE89511244E5F5F4FF1E0A038BF0790
:107F300051F7F601A7BEE89507B600FCFDCF97BE46
:107F4000E89526C08437B1F42ED02DD0F82E2BD052
:107F50003CD0F601EF2C8F010F5F1F4F84911BD097
:107F6000EA94F801C1F70894C11CD11CFA94CF0C13
:107F7000D11C0EC0853739F428D08EE10CD085E9AC
:107F80000AD08FE07ACF813511F488E018D01DD067
:107F900080E101D065CF982F8091C00085FFFCCF94
:107FA0009093C60008958091C00087FFFCCF809118
:107FB000C00084FD01C0A8958091C6000895E0E648
:107FC000F0E098E1908380830895EDDF803219F02E
:107FD00088E0F5DFFFCF84E1DECF1F93182FE3DFCA
:107FE0001150E9F7F2DF1F91089580E0E8DFEE27F6
:047FF000FF270994CA
:027FFE00040479
:00000001FF
