:100000000C94F8020C9420030C9420030C9420030D
:100010000C9420030C9420030C9420030C942003D4
:100020000C9420030C9420030C9420030C942003C4
:100030000C9420030C9420030C9420030C942003B4
:100040000C9401070C9420030C9420030C942003BF
:100050000C9420030C9420030C9420030C94200394
:100060000C9420030C9420034602000000FF0800BB
:10007000053E5B4F5B3E053E6B4F6B3E051C3E7C79
:100080003E1C05183C7E3C18051C577D571C051C62
:100090005E7F5E1C0400183C1805FFE7C3E7FF0401
:1000A0000018241805FFE7DBE7FF0530483A060E85
:1000B00005262979292605407F05050705407F0586
:1000C000253F055A3CE73C5A057F3E1C1C080508A5
:1000D0001C1C3E7F0514227F221405FFFFFFFFFF3B
:1000E00005F0F0F0F0F003FFFFFF05000000FFFF58
:1000F000050F0F0F0F0F0508047E04080510207E62
:1001000020100508082A1C0805081C2A080805AA4A
:10011000005500AA05AA55AA55AA0530383E383020
:1001200005060E3E0E06020000015F0307000705EC
:10013000147F147F1405444AFF4A32056313086490
:10014000630536494936480107033E4141034141B1
:100150003E05082A1C2A080508083E08080260E037
:100160000408080808026060056010080403053EE2
:100170005149453E0304027F0571494949460541FD
:1001800049494936050F0808087F054F4949493153
:10019000053E4949493005030101017F05364949BA
:1001A000493605064949493E026C6C026CEC03086D
:1001B0001422041414141403221408050159090903
:1001C00006053E415D594E057E0909097E057F49B8
:1001D000494936053E41414141057F4141413E0586
:1001E0007F49494941057F09090901053E414149C6
:1001F00079057F0808087F03417F4105304141416F
:100200003F057F08142241057F40404040057F02A2
:100210000C027F057F0408107F053E4141413E05E9
:100220007F09090906053E4141617E057F091929BB
:10023000460546494949310501017F0101053F4015
:1002400040403F051F2040201F053F4038403F05EC
:1002500063140814630503047804030561514945D8
:1002600043037F41410503040810600341417F05BA
:100270000402010204048080808003010204043827
:1002800044447C047F44443804384444440438449F
:10029000447F043854545804047E05010418A4A46F
:1002A0007C047F040478017D0384857C047F10280E
:1002B00044017F057C04780478047C0404780438C5
:1002C00044443804FC24241804182424FC047C042A
:1002D0000408045854543403047F04043C40407C14
:1002E000041C20407C053C4030403C046C10106CE9
:1002F000041CA0A07C046454544C04083641410101
:100300007F04414136080402010201057F41414159
:100310007F053E55555541053844443844057C2AEF
:100320002A3E14057E0202060605027E027E0205B2
:100330006355494163053844443C0405407E201E12
:10034000200506027E0202086313086463006060F1
:10035000052A2A2A2A2A03514A4403444A510500FD
:1003600000FF010303E080FF053612362436030246
:100370000502021818021010053040FF0101041F89
:1003800001011E000000000901017F017F020C0233
:100390007F0000000000000100017D0418247E247D
:1003A00004447E454105221C141C2205012A7C2A96
:1003B000010177044E55553903020002077E81BDC5
:1003C000A5A5817E0326292F0508142A14220408D6
:1003D00008081803080808077E81BD95A9817E05D5
:1003E00001010101010302050203242E2403191552
:1003F000120315150A02020104F8204078050609C7
:100400007F017F021818040080A0C003121F100390
:100410002629260522142A140808402F1008041E35
:10042000117C08402F10080462554C0915553F10E7
:1004300008041E117C053048484D400578151614F7
:1004400078057814161578057A1514157A05781636
:10045000151679057815141578057814151478078C
:100460007E09097F494941059EA1612121057C54EE
:10047000554644057C54564544057E55544546052D
:100480007C5554454403457E4403447E4503467DE4
:100490004603457C4505087F49413E057C0A1122FB
:1004A0007D053844454638053844464538053A45C3
:1004B00044453A05384645463905384544453805EA
:1004C0002214081422057C625A463E053C404142F3
:1004D0003C053C4042413C053C4241423C053C41DC
:1004E00040413C0502047A0502043F12120C057ECD
:1004F00049494E30043845467C043844467D04382A
:1005000046457E043A45467D043845447D04304ADC
:100510004D7A0720545438545458049CA262220443
:10052000385556580438545659043856555A0438D4
:1005300055545902017A027A0103027902030278C2
:100540000204304B4B3C047A090A710430494A30AA
:100550000430484A3104304A49320432494A3104AD
:10056000394444390508082A08080438544C38042A
:10057000384142780438404279043842417A043A9A
:1005800040407A0418A0A27904FC282810041AA07C
:10059000A07A00000000240027002A0000000000CC
:1005A000250028002B000000000023002600290061
:1005B0000404040404040404020202020202030309
:1005C0000303030301020408102040800102040811
:1005D00010200102040810200000000800020100A1
:1005E00000030407000000000000000081099909D1
:1005F00011241FBECFEFD8E0DEBFCDBF21E0A6E0C3
:10060000B1E001C01D92AC33B207E1F711E0A0E008
:10061000B1E0E6E4F6E102C005900D92A630B10724
:10062000D9F712E0C7EFD2E004C02197FE010E9483
:10063000E409C63FD107C9F70E944B070C94160B7B
:100640000C940000833081F028F4813099F08230DE
:10065000A9F008958730A9F08830C9F08430B1F44A
:10066000809180008F7D03C0809180008F77809380
:100670008000089584B58F7784BD089584B58F7DFB
:10068000FBCF8091B0008F778093B0000895809168
:10069000B0008F7DF9CFCF93DF93282F30E0F901A1
:1006A000E852FA4F8491F901EC53FA4FD491F901D1
:1006B000E055FA4FC491CC23A1F081110E9422038E
:1006C000EC2FF0E0EE0FFF1FEA55FA4FA591B49121
:1006D000EC91ED2381E090E009F480E0DF91CF918F
:1006E000089580E090E0FACF1F93CF93DF93282FF7
:1006F00030E0F901E852FA4F8491F901EC53FA4FD6
:10070000D491F901E055FA4FC491CC23A9F0162FEA
:1007100081110E942203EC2FF0E0EE0FFF1FE45640
:10072000FA4FA591B4918FB7F894EC91111108C0CC
:10073000D095DE23DC938FBFDF91CF911F91089579
:10074000DE2BF8CFCF93DF9390E0FC01EC53FA4F10
:10075000249180559A4FFC0184918823D1F090E038
:10076000880F991FFC01EE56FA4FA591B491FC0138
:10077000E456FA4FC591D49161110EC09FB7F89419
:100780008C91E22FE0958E238C932881E223E883DD
:100790009FBFDF91CF9108958FB7F894EC91E22B32
:1007A000EC938FBFF6CF3FB7F894809111019091F1
:1007B0001201A0911301B091140126B5A89B05C0A8
:1007C0002F3F19F00196A11DB11D3FBFBA2FA92FD0
:1007D000982F8827BC01CD01620F711D811D911DCD
:1007E00042E0660F771F881F991F4A95D1F7089539
:1007F000EF92FF920F931F93CF93DF9380911F018E
:100800008823A1F080911601882361F08FB7F894B6
:1008100090911601913071F59DB3909315019DB3A0
:100820009DBB8FBF80E58CBD81E08DBD60E0809178
:100830001E010E94740380911F018823F1F030E0B3
:1008400020E08091220190E0880F991F2817390736
:1008500008F03DC0E0912501F0912601E20FF31F61
:1008600080818EBD00000DB407FEFDCF8EB52F5FD9
:100870003F4FE7CF80931501D5CFD0E0C0E0809106
:10088000220190E0880F991FC817D90700F5E09161
:100890002501F0912601EC0FFD1F0081F0901D0154
:1008A000E0901C0118E0602F661F6627661F8E2DE2
:1008B0000E947403000F61E08F2D0E94740360E0BA
:1008C0008F2D0E947403115071F72196D8CF61E0EB
:1008D00080911E010E94740380911F01882371F092
:1008E00080911601882351F09FB7F894209116014A
:1008F00080911501213049F48DBB9FBFDF91CF91CD
:100900001F910F91FF90EF9008958FBFF7CFE7E110
:10091000F1E0438550E0440F551F70E060E08685AC
:1009200097850C940F0BEF92FF920F931F93CF9329
:10093000DF93FF24F394D0E0C0E001E010E0B9E0E1
:10094000EB2E0E94870498010C2E02C0220F331F49
:100950000A94E2F7E0E090E080912201E817E0F5E8
:10096000EE9DB0011124A0912301B0912401A60FA6
:10097000B71F18964C9150E042235323452B51F159
:100980004E2F50E08150990B841B950B880F991FB7
:10099000A0912501B0912601A80FB91FFC92A0914A
:1009A0002301B0912401A60FB71FAC0FBD1F6C919E
:1009B000809122018150990B841B950B880F991F00
:1009C0004091250150912601840F951FDC0111965D
:1009D0006C9391E0EF5FC0CF91110E94F8032196D4
:1009E000F394C830D10509F0ACCF80E099E02091B4
:1009F0002201821758F4E0912301F0912401899F8C
:100A0000E00DF11D112410868F5FF1CFDF91CF91A2
:100A10001F910F91FF90EF900895FF920F931F93F6
:100A2000CF93DF938A30910508F061C08B01EC0110
:100A3000F09022010E94870440E0E02F5FEF5F0DFD
:100A4000C230D10509F449C088F42097E9F08E2F0F
:100A50009BE0C130D105F1F04F5F541788F7DF916B
:100A6000CF911F910F91FF900C94F803C330D105E3
:100A7000B9F1C430D10581F781E00115110509F400
:100A800080E0819599E006C081E00115110509F02B
:100A900080E09CE0642F70E0209122012150330B14
:100AA000261B370B220F331FA0912501B091260181
:100AB000A20FB31F9C93209122012150330B261BC0
:100AC000370B220F331F6091250170912601260FED
:100AD000371FD90111968C93BFCF8E2F9AE0DACFB2
:100AE00081E00115110509F480E09FE0D3CF21E0FA
:100AF0006130710509F020E00B9761F020932B0124
:100B00006130710549F4DF91CF911F910F91FF90F2
:100B10000C94930420932C01DF91CF911F910F919E
:100B2000FF900895CF92DF92EF92FF920F931F9361
:100B3000CF93DF93EB0153E0D695C7955A95E1F734
:100B40002C2F90912201C91708F056C1883008F067
:100B500053C167707727509119018E01112739E031
:100B6000C39FE0011124E0912301F0912401EC0FD7
:100B7000FD1F90911B01A82FB0E030911A01442372
:100B800009F4D0C0552309F4A4C047E050E04A1B43
:100B90005B0B911101C0AD01E40FF51F908147E09F
:100BA00050E0461B570B3111A4C0C12CD12C76014B
:100BB000C394062E04C0CC0CDD1CEE1CFF1C0A9452
:100BC000D2F7C92AC082E0912301F0912401EC0FF1
:100BD000FD1F308590911B0140911901442309F4B8
:100BE000EBC0992321F087E090E08A1B9B0B41E04A
:100BF00050E060E070E004C0440F551F661F771F8F
:100C00008A95D2F7432B4087D0902B01DD2009F441
:100C1000F5C080912201281708F051C0F12CE12C79
:100C2000CC24C394CE0CE0912301F0912401EC0F6D
:100C3000FD1F808590E00E2C02C0959587950A9443
:100C4000E2F780FF2DC00E9487048091220181502D
:100C5000990B801B910B880F991F209125013091D2
:100C60002601820F931FFC01C082E0912301F091C5
:100C70002401EC0FFD1FEE0DFF1D4081809122012C
:100C80008150990B801B910B880F991F2091250192
:100C900030912601820F931FFC0141830E94F803CB
:100CA000FFEFEF1AFF0A38E0E316F10409F0B8CFBE
:100CB0008091230190912401C80FD91F18868D2D92
:100CC000DF91CF911F910F91FF90EF90DF90CF9028
:100CD000089547E050E0461B570B911101C0AB014E
:100CE000E40FF51F9081332381F047E050E04A1B69
:100CF0005B0BC12CD12C7601C39404C0CC0CDD1C41
:100D0000EE1CFF1C4A95D2F75CCFC12CD12C76018A
:100D1000C394082E04C0CC0CDD1CEE1CFF1C0A94EE
:100D2000D2F74FCF5523F9F047E050E04A1B5B0B59
:100D3000911101C0AD01E40FF51F908147E050E033
:100D4000461B570B31111FC0C12CD12C7601C39407
:100D5000062E04C0CC0CDD1CEE1CFF1C0A94D2F73E
:100D6000C094C9222FCF47E050E0461B570B91118A
:100D700001C0AB01E40FF51F9081332381F047E000
:100D800050E04A1B5B0BC12CD12C7601C39404C0EC
:100D9000CC0CDD1CEE1CFF1C4A95D2F7E1CFC12C18
:100DA000D12C7601C394082E04C0CC0CDD1CEE1CA3
:100DB000FF1C0A94D2F7D4CF992391F047E050E07A
:100DC000461B570B81E090E0A0E0B0E004C0880F24
:100DD000991FAA1FBB1F4A95D2F7832B808714CF78
:100DE00081E090E0A0E0B0E004C0880F991FAA1F46
:100DF000BB1F6A95D2F7F1CFD12C61CFDD24D394FC
:100E00005ECF1F920F920FB60F9211242F933F9334
:100E10008F939F93AF93BF9380910D0190910E019B
:100E2000A0910F01B091100130910C0123E0230F2C
:100E30002D3758F50196A11DB11D20930C0180930B
:100E40000D0190930E01A0930F01B09310018091BA
:100E5000110190911201A0911301B091140101961A
:100E6000A11DB11D8093110190931201A093130154
:100E7000B0931401BF91AF919F918F913F912F91AA
:100E80000F900FBE0F901F90189526E8230F029623
:100E9000A11DB11DD2CF789484B5826084BD84B584
:100EA000816084BD85B5826085BD85B5816085BD65
:100EB00080916E00816080936E001092810080911D
:100EC00081008260809381008091810081608093A5
:100ED0008100809180008160809380008091B100CA
:100EE00084608093B1008091B00081608093B000F5
:100EF00080917A00846080937A0080917A00826089
:100F000080937A0080917A00816080937A0080914A
:100F10007A00806880937A001092C10080911F014E
:100F2000882309F4C4C0CFB7F894809107018111D8
:100F300027C0EAEBF5E08491EEECF5E09491E82F20
:100F4000F0E0EE0FFF1FEE56FA4FA591B491EC9131
:100F5000E92321F461E08AE00E94740361E08AE001
:100F60000E94A2038CB580618CBD8CB580648CBD61
:100F700061E08DE00E94A20361E08BE00E94A20389
:100F8000809107018F5F80930701CFBF61E080915F
:100F90001E010E94A20361E080911E010E94740361
:100FA000109228011092270110922A011092290113
:100FB00080912D0190912E018856904009F49CC09B
:100FC000E8E6F0E0F0932E01E0932D0110922F015E
:100FD00088E08093300110923301109232018FEF3C
:100FE00090E0909335018093340110923701109274
:100FF0003601E491E63409F033C0E9E6F0E0E4912B
:10100000E13009F45FC082E090E0E23029F5EAE6E1
:10101000F0E08491EBE6F0E0E49190E0982F8827EF
:101020008E0F911D9093330180933201ECE6F0E036
:101030008491EDE6F0E0E49190E0982F88278E0F00
:10104000911D9093350180933401EEE6F0E0E49138
:10105000E093300187E090E0909337018093360170
:10106000C0903601D0903701F12CE12C2091320153
:1010700030913301409134015091350160E04217C5
:10108000530708F437C0F601E859FF4F84916817F9
:1010900008F4682F90E0B0E0A0E00196A11DB11D1A
:1010A000C80ED91EEA1EFB1E2F5F3F4FE8CF61E03E
:1010B00080911C010E94A20361E080911D010E94A9
:1010C000A20364CFEAE6F0E0E491F0E0F0933301AC
:1010D000E0933201EBE6F0E0E491F0E0F0933501CB
:1010E000E0933401ECE6F0E0E491E093300185E038
:1010F00090E0B2CF60933101C091220149E0C49FDA
:10110000C00111240E94EA098C019093240180936C
:1011100023018C2F90E0880F991F0E94EA09909379
:10112000260180932501892B09F451C0012B09F474
:101130004EC070E060E083E090E00E940D0567E043
:1011400070E081E090E00E940D0567E070E082E0D1
:1011500090E00E940D0570E060E084E090E00E9465
:101160000D0590912201915080E069E058E04FEF29
:10117000869F90011124A0912301B0912401A20F18
:10118000B31FFD01752F11927A95E9F7E0912301C4
:10119000F0912401E20FF31F40878F5F981740F70B
:1011A00080912B0181110E94930470E060E090E037
:1011B00080E00E940D0570E060E08BE090E00E940E
:1011C0000D0561E070E08AE090E00E940D0560E0AE
:1011D00080E00E94A20360E081E00E94A20360E040
:1011E00082E00E94A20360E083E00E94A203C8E0C4
:1011F000D0E090E0892E90E0992E07E010E080E0AA
:101200000E944B035C0181E00E944B036C0182E071
:101210000E944B037C0183E00E944B0320910A0152
:1012200030910B01E0910801F0910901AA94AB28DB
:1012300009F042C0C9010196BE010E94BC09909309
:101240000B0180930A0140E0BF01822F0E949205AA
:10125000609108017091090141E080910A010E94AA
:1012600092050E94D3032B013C0188ECC82ED12C9F
:10127000E12CF12C0E94D3036419750986099709A2
:10128000683E734081059105A8F3E1E0CE1AD108CC
:10129000E108F108F8EE4F0EF3E05F1E611C711CCF
:1012A000C114D104E104F10429F78114910409F473
:1012B000A6CF0E940000A3CFCA94CD2849F4C9014B
:1012C000019708F0BCCF10930B0100930A01BBCF2C
:1012D000019769F4CF01019728F090930901809359
:1012E0000801B1CF1093090100930801ACCFEA9433
:1012F000EF2809F0A8CFCF010196BE010E94BC09DA
:10130000ECCFE7E1F1E08BE085838DE086838AE036
:101310008783108686E091E09287818781E08387CA
:10132000848B22E030E031832083828383831482A4
:10133000089580911F01882399F09FB7F8948091B8
:101340000701882319F081508093070180910701DC
:10135000811105C08CB58F7B8CBD109216019FBF8B
:1013600080912301909124010E94860A8091250199
:10137000909126010C94860A97FB072E16F4009490
:1013800007D077FD09D00E94D00907FC05D03EF4B4
:10139000909581959F4F0895709561957F4F089521
:1013A000AA1BBB1B51E107C0AA1FBB1FA617B7078B
:1013B00010F0A61BB70B881F991F5A95A9F78095A7
:1013C0009095BC01CD010895EE0FFF1F0590F4919B
:1013D000E02D09940F931F93CF93DF9382309105F3
:1013E00010F482E090E0E0913A01F0913B0130E0AE
:1013F00020E0B0E0A0E0309799F42115310509F420
:101400004AC0281B390B24303105D8F58A819B81CD
:101410006115710589F1FB0193838283FE0111C07F
:10142000408151810281138148175907E0F0481724
:10143000590799F4109761F012960C93129713962E
:101440001C933296CF01DF91CF911F910F91089598
:1014500000933A0110933B01F4CF2115310551F06F
:101460004217530738F0A901DB019A01BD01DF01E2
:10147000F801C1CFEF01F9CF90933B0180933A017E
:10148000CDCFFE01E20FF31F8193919322503109DA
:1014900039832883D7CF2091380130913901232B0C
:1014A00041F42091020130910301309339012093DE
:1014B000380120910001309101012115310541F4DD
:1014C0002DB73EB74091040150910501241B350B07
:1014D000E0913801F0913901E217F307A0F42E1BD7
:1014E0003F0B2817390778F0AC014E5F5F4F241788
:1014F000350748F04E0F5F1F509339014093380174
:10150000819391939FCFF0E0E0E09CCFCF93DF9366
:101510000097E9F0FC01329713821282A0913A0100
:10152000B0913B01ED0130E020E01097A1F4208163
:101530003181820F931F2091380130913901281792
:10154000390709F061C0F0933901E0933801DF9168
:10155000CF910895EA01CE17DF07E8F54A815B8154
:101560009E0141155105B1F7E901FB83EA834991D9
:101570005991C40FD51FEC17FD0761F4808191814B
:101580000296840F951FE901998388838281938154
:101590009B838A83F0E0E0E012968D919C911397F3
:1015A0000097B9F52D913C911197CD010296820FCC
:1015B000931F20913801309139012817390739F6E6
:1015C000309751F510923B0110923A01B0933901D6
:1015D000A0933801BCCFD383C28340815181840F53
:1015E000951FC817D90761F44E5F5F4F88819981B5
:1015F000480F591F518340838A819B819383828343
:101600002115310509F0B0CFF0933B01E0933A0189
:101610009ECFFD01DC01C0CF13821282D7CFDC0147
:1016200001C06D9341505040E0F7089512E0C7EFBC
:10163000D2E004C0FE010E94E4092196C83FD10710
:06164000C9F7F894FFCF8A
:0616460000003C018000E1
:00000001FF
