:100000000C9462000C948A000C948A000C948A0070
:100010000C948A000C948A000C948A000C948A0038
:100020000C948A000C948A000C948A000C948A0028
:100030000C948A000C948A000C948A000C948A0018
:100040000C944E050C948A000C948A000C948A003F
:100050000C948A000C948A000C948A000C948A00F8
:100060000C948A000C948A000000000023002600F3
:10007000290000000008000201000003040700003E
:1000800000000000000000000000250028002B00F8
:1000900000000000240027002A00040404040404D3
:1000A0000404020202020202030303030303010227
:1000B00004081020408001020408102001020408F6
:1000C0001020980511241FBECFEFD8E0DEBFCDBFB2
:1000D00011E0A0E0B1E0E4E8F9E102C005900D9282
:1000E000A43DB107D9F722E0A4EDB1E001C01D9213
:1000F000A63EB207E1F710E0C2E6D0E004C02197C7
:10010000FE010E94B50CC136D107C9F70E94CB058C
:100110000C94C00C0C940000CF93DF9390E0FC0192
:10012000E255FF4F249186569F4FFC01849188230E
:10013000C1F090E0880F991FFC01E057FF4FC59177
:10014000D491FC01EA57FF4FA591B4919FB7F89461
:100150008881E22FE0958E2388838C91E823EC93AD
:100160009FBFDF91CF91089590E0FC01EE58FF4FC3
:100170002491FC01E255FF4F3491FC01E656FF4FFC
:10018000E491EE23C1F1222339F02330E9F090F419
:10019000213001F1223011F1F0E0EE0FFF1FE8599C
:1001A000FF4FA591B491EC91E32381E090E029F514
:1001B00080E008952730A9F02830C9F0243061F795
:1001C000809180008F7D03C0809180008F77809325
:1001D0008000E2CF84B58F7784BDDECF84B58F7D7C
:1001E000FBCF8091B0008F778093B000D5CF809106
:1001F000B0008F7DF9CF80E090E008953FB7F8948C
:100200008091D1029091D202A091D302B091D402F8
:1002100026B5A89B05C02F3F19F00196A11DB11D61
:100220003FBFBA2FA92F982F8827BC01CD01620F9D
:10023000711D811D911D42E0660F771F881F991F58
:100240004A95D1F7089580E991E008951F93DC0164
:10025000FB017C9111965C91119712961C91972F3E
:10026000990F990F990F35E5292F239F020E20E052
:10027000211D1124822F672F6074472F407277FD54
:1002800066C0611152C0411105C0922F9095892F0F
:1002900090E004C025E5280F90E08BEA5F3F09F469
:1002A00022C0552309F474C0509530E0552329F03D
:1002B000559F312D112451113F5F432F4095582FE9
:1002C000549F050E50E0511D852F249F020E20E003
:1002D000211D592F549F050E50E0511D952F1124BB
:1002E000830F230F930F1F3FD9F030E0112321F02C
:1002F000119F312D09F03F5F332309F44DC0482F82
:10030000439F040E40E0411D842F239F020E20E0F6
:10031000211D592F539F050E50E0511D952F11247B
:100320008083218392831F91089541110BC0392F3F
:100330002AEA329F030E30E0311D11249BEA931B01
:10034000280FA5CF90E02095982F80E0A7CF6111CE
:1003500012C041110CC0392F2AEA329F030E30E03F
:10036000311D11242BEA231B95E5930FEECF922F1D
:10037000909520E093CF411106C025E5280F9BEA18
:10038000981B822FF6CF2AEA280F90E0932FF8CF00
:100390009FEF2FEF8FEFA7CF90E020E080E0C0CF5E
:1003A0000F931F93CF93DF932091D5012F5F322FAF
:1003B00037703093D50120FF2BC020E831FD206439
:1003C000347009F02062205FFC01EC01239600E00C
:1003D00011E06485662329F070E0C8010E94860C54
:1003E0006F5F6187322F369F030E30E0311D11247D
:1003F000311110C01682662311F061506187319669
:10040000EC17FD0731F7DF91CF911F910F91089500
:1004100020E0D4CF31503683EECF4F925F927F925F
:100420008F929F92AF92BF92CF92DF92EF92FF9204
:100430000F931F93CF93DF932C01EB010E94FE00DB
:10044000F20127853089621B730B6A307105B0F3A6
:10045000F8948A819B81181619060CF0CDC1E881A9
:10046000F9816BB1862E689484F83BB13F7E3BB92D
:10047000DA848F812D2D281B822F2F834F85042E08
:10048000000C550BAA81BB817D85FC84EE847F5FC7
:10049000F394E3949E819884B984AB841181C12C38
:1004A0006C2D0C2D2C2D2181112788942111280FC2
:1004B00008F42FEF8195889470FD120F179588949A
:1004C00071FD120F1795889472FD120F179588947D
:1004D00073FD120F1795889474FD120F1795889469
:1004E00075FD120F1795889476FD120F1795889455
:1004F00077FD120F17958894622F7111612F8D0D62
:10050000162F002C8BB800C000C017FF3BB920810C
:100510006627889400C0002C3BB92111290F00C028
:10052000002C8BB800C000C016FF3BB908F42FEFB9
:100530009195889400C0002C3BB9F0FC620F00C07C
:10054000002C8BB800C000C015FF3BB9679588949C
:10055000F1FC620F00C0002C3BB96795889400C085
:10056000002C8BB800C000C014FF3BB9F2FC620F36
:100570006795889400C0002C3BB9F3FC620F00C063
:10058000002C8BB800C000C013FF3BB9679588945E
:10059000F4FC620F00C0002C3BB96795889400C042
:1005A000002C8BB800C000C012FF3BB9F5FC620FF5
:1005B0006795889400C0002C3BB9F6FC620F00C020
:1005C000002C8BB800C000C011FF3BB96795889420
:1005D000F7FC620F00C0002C3BB96795889400C0FF
:1005E000002C8BB800C000C010FF3BB9122FF110D7
:1005F000162F9B0D00C0002C3BB900C000C0002C82
:100600008BB800C000C017FF3BB9228166278894D1
:1006100000C0002C3BB92111290D00C0002C8BB863
:1006200000C000C016FF3BB908F42FEFE40FF51F20
:1006300000C0002C3BB9E0FC620F00C0002C8BB85E
:1006400000C000C015FF3BB967958894E1FC620FBC
:1006500000C0002C3BB96795889400C0002C8BB873
:1006600000C000C014FF3BB9E2FC620F679588949C
:1006700000C0002C3BB9E3FC620F00C0002C8BB81B
:1006800000C000C013FF3BB967958894E4FC620F7B
:1006900000C0002C3BB96795889400C0002C8BB833
:1006A00000C000C012FF3BB9E5FC620F679588945B
:1006B00000C0002C3BB9E6FC620F00C0002C8BB8D8
:1006C00000C000C011FF3BB967958894E7FC620F3A
:1006D00000C0002C3BB96795889400C0002C8BB8F3
:1006E00000C000C010FF3BB9122FE110162F9194EB
:1006F00000C0002C3BB99A0C00C000C08BB800C0F1
:1007000000C017FF3BB921816627889400C0002CE8
:100710003BB92111280F00C0002C8BB800C000C0CD
:1007200016FF3BB908F42FEF8195889400C0002C88
:100730003BB970FD620F00C0002C8BB800C000C038
:1007400015FF3BB96795889471FD620F00C0002CBE
:100750003BB96795889400C0002C8BB800C000C0DE
:1007600014FF3BB972FD620F6795889400C0002C9E
:100770003BB973FD620F00C0002C8BB800C000C0F5
:1007800013FF3BB96795889474FD620F00C0002C7D
:100790003BB96795889400C0002C8BB800C000C09E
:1007A00012FF3BB975FD620F6795889400C0002C5D
:1007B0003BB976FD620F00C0002C8BB800C000C0B2
:1007C00011FF3BB96795889477FD620F00C0002C3C
:1007D0003BB96795889400C0002C8BB800C000C05E
:1007E00010FF3BB9122F7111162F8D0D00C0002C78
:1007F0003BB9119709F086CE4A815B8120EE31E04A
:10080000DA010E949A0CDC01CB01F4E0B695A795C1
:1008100097958795FA95D1F730E020E0B901EAE99C
:100820004E9F040E611D5E9F600D711D1124650FAA
:10083000711D860F971FA11DB11D893E43E09407CE
:10084000A105B10508F434C0885E9340A109B1093F
:1008500042E0B695A795979587954A95D1F747E0D9
:10086000849F080E211D949F200D311D1124290FF6
:10087000311D6091D40170E0860F971F820F931F86
:100880004091CD025091CE026091CF027091D00282
:10089000292F3327420F531F611D711D4093CD0235
:1008A0005093CE026093CF027093D0028093D40114
:1008B00078940E94FE00F201708B6787DF91CF91E0
:1008C0001F910F91FF90EF90DF90CF90BF90AF906E
:1008D0009F908F907F905F904F90089581E090E07F
:1008E0000895549A08956F927F928F92CF92DF92DB
:1008F000EF92FF920F931F93CF93DF93CDB7DEB7A5
:1009000062970FB6F894DEBF0FBECDBF6C017A01BF
:100910003801822EDC011C962C91CA0157FF04C0BD
:1009200088279927841B950B7A8369839C838B8303
:100930009E838D836D867E868F86213049F5CE011C
:1009400001960E94D00183E0888B1A8A198AF7FEEB
:1009500002C08DEF888BD601ED91FC910684F7855E
:10096000E02DBE016F5F7F4FC601099562960FB6FD
:10097000F894DEBF0FBECDBFDF91CF911F910F91D5
:10098000FF90EF90DF90CF908F907F906F900895C1
:100990001C861B861A86198618861F82D4CFEF9272
:1009A000FF920F931F93CF93DF93CDB7DEB762977C
:1009B0000FB6F894DEBF0FBECDBF7C01DC011C96E4
:1009C0008C917A8369835C834B835E834D830D872F
:1009D0001E872F878130F9F4CE0101960E94D00145
:1009E000188A1A8A198AD701ED91FC910684F78535
:1009F000E02DBE016F5F7F4FC701099562960FB66C
:100A0000F894DEBF0FBECDBFDF91CF911F910F9144
:100A1000FF90EF9008951C861B861A86198618860B
:100A20001F82DECF982F48E0649F9001112460FF61
:100A300006C087E0891B820F932F911D0895A9019D
:100A4000480F511DCA01089590E080E00895FC010F
:100A50008585968508950F931F93CF93DF9300D0DC
:100A60001F92CDB7DEB7AB0119821A821B82DC015F
:100A7000ED91FC910190F081E02D00E010E020E08C
:100A8000BE016F5F7F4F09950F900F900F90DF9120
:100A9000CF911F910F9108950E94BB0C1F920F924E
:100AA0000FB60F9211242F933F938F939F93AF9381
:100AB000BF938091CD029091CE02A091CF02B091D0
:100AC000D0023091CC0223E0230F2D3758F5019648
:100AD000A11DB11D2093CC028093CD029093CE0234
:100AE000A093CF02B093D0028091D1029091D20214
:100AF000A091D302B091D4020196A11DB11D8093A3
:100B0000D1029093D202A093D302B093D402BF91AA
:100B1000AF919F918F913F912F910F900FBE0F90AA
:100B20001F90189526E8230F0296A11DB11DD2CF64
:100B3000CF92DF92EF92FF92CF93DF93E5EDF2E059
:100B40008FEF808312821182148613868FEF9FEFBE
:100B5000DC0187839087A187B2870E94970AC2EE43
:100B6000D2E028E0C22ED12CE12CF12CA701960175
:100B70000E94EF0A798368830E94970AA701960171
:100B80000E94EF0A7B836A83DF91CF91FF90EF9001
:100B9000DF90CF900895CF93DF9300D000D000D0A6
:100BA000CDB7DEB7789484B5826084BD84B58160AA
:100BB00084BD85B5826085BD85B5816085BD809128
:100BC0006E00816080936E001092810080918100A0
:100BD0008260809381008091810081608093810098
:100BE000809180008160809380008091B10084605A
:100BF0008093B1008091B00081608093B0008091BB
:100C00007A00846080937A0080917A008260809379
:100C10007A0080917A00816080937A0080917A00D6
:100C2000806880937A001092C1008091E90181115F
:100C300045C01092DB011092DA018FEF8093DE0144
:100C40008093DF018093E0018093E1018093E201D2
:100C50008093E30181E08093E4011092E601109219
:100C6000E5011092DD011092DC018091FB01909171
:100C7000FC01892B31F488ED91E09093FC01809385
:100C8000FB01E091D601F091D701309721F088ED7A
:100C900091E09583848388ED91E09093D7018093D0
:100CA000D6011092E8011092E70184EC91E0909354
:100CB000D9018093D80181E08093E901549A84E0BE
:100CC00092E09093DB018093DA0180E490E09093CE
:100CD000E6018093E5018091D8029091D902A0911C
:100CE000DA02B091DB02843C29E09207A105B1054C
:100CF00020F484EC99E0A0E0B0E08093D8029093D7
:100D0000D902A093DA02B093DB028FEF8093DE0169
:100D100080EB8093DF0180EF8093E0018AEF809386
:100D2000D50280E00E948C0081E00E948C0082E06D
:100D30000E948C0083E00E948C0048E0842E912C5D
:100D4000A12CB12C22242394312C2FB7F89460913C
:100D5000CD027091CE028091CF029091D0022FBF30
:100D60000E94BF0B6B017C012091F1013091F201D7
:100D70004091F3015091F4010E94520BC092F10195
:100D8000D092F201E092F301F092F4012091C802B6
:100D90003091C9024091CA025091CB020E94530B7C
:100DA0002B013C014092C8025092C9026092CA02D3
:100DB0007092CB0280E00E94B4006C0181E00E943E
:100DC000B4007C0182E00E94B4008C0183E00E94A8
:100DD000B400EA94EF2809F058C02091A80130919E
:100DE000A901232B09F064C01092A7011092A6015B
:100DF000EFEFFFEFF093A901E093A8012BEA3AEAA5
:100E000046EA53E4C301B2010E944D0C18160CF0DF
:100E100027C11092C8021092C9021092CA02109201
:100E2000CB021092C5021092C4020091C40210912C
:100E3000C502083011050CF062C01092C702109272
:100E4000C602E090C602F090C70298E0E916F104ED
:100E50000CF04EC019821A821B82602F8E2D0E94C8
:100E600012050196BC01660F771F680F791F6F5F2F
:100E70007D4FCE0101960E942601AFEFEA1AFA0AD1
:100E8000F092C702E092C602DCCFF1E0CF16D104A7
:100E900079F42091A8013091A901232B49F41092F3
:100EA000A7011092A601D092A901C092A801A6CFD5
:100EB0000130110591F48091A6019091A701892B31
:100EC00009F09CCF8FEF9FEF9093A7018093A6012D
:100ED0001092A9011092A80191CF8130910509F0DB
:100EE0008DCF2091A6013091A701232B69F386CFE6
:100EF0000F5F1F4F1093C5020093C40296CFC0909E
:100F00000001D09001018091A6019091A701C80E27
:100F1000D91E00910201109103018091A8019091C6
:100F2000A901080F191FB8E0CB16D10479F0EFEF33
:100F3000CE16DE0609F49CC00830110509F49CC0E9
:100F40000F3F100729F407E010E002C0D12CC12C9C
:100F50008091A4019091A501E0E0F1E0DF0130E093
:100F600020E0281739070CF08EC014964D915C9143
:100F700015974C155D0509F082C016964D915C9150
:100F800017974017510709F07AC03093C702209392
:100F9000C6020E94FE002B013C0118EEC12E13E098
:100FA000D12EE12CF12C0E94FE00641975098609EE
:100FB0009709683E734081059105A8F321E0C21AA4
:100FC000D108E108F10888EE480E83E0581E611C44
:100FD000711CC114D104E104F10429F786EAE4E0AC
:100FE000F1E011928A95E9F7309201012092000117
:100FF00085E090E0909303018093020190930701B4
:1010000080930601309209012092080190930B0110
:1010100080930A0182E090E09093A5018093A4015F
:101020003092A7012092A6010E94970A6B017C01D1
:101030000E94970A2B013C01C701B601A50194014A
:101040000E94EF0A7093E3026093E202C301B201CF
:10105000A50194010E94EF0A7093E5026093E402F7
:1010600080E090E0892B09F470CE0E9400006ACEE7
:1010700087E0C82ED12C6CCF10E000E069CF2F5F45
:101080003F4F14966ECF3093C7022093C602209133
:10109000E2023091E302C216D30609F071C020913A
:1010A000E4023091E5020217130709F069C00196C6
:1010B0009093A5018093A4010E94970AA501940131
:1010C0000E94EF0A7093E3026093E2020E94970A83
:1010D000A50194010E94EF0A7093E5026093E40277
:1010E000E090A401F090A501F701EE0FFF1FEE0FB5
:1010F000FF1FE050FF4FD182C082F701EE0FFF1FAC
:10110000EE0FFF1FE450FF4F17830683D0920101BB
:10111000C092000110930301009302011092C502D6
:101120001092C4020091C4021091C5021092C7022D
:101130001092C60208301105E4F5C090C602D090A6
:10114000C70298E0C916D1046CF519821A821B8275
:10115000602F8C2D0E9412050196BC01660F771F2F
:10116000680F791F6F5F7D4FCE0101960E942601A7
:10117000AFEFCA1ADA0AD092C702C092C602DDCF18
:1011800030E020E02F5F3F4F3496281739070CF0EE
:10119000A7CF448155815183408346815781538332
:1011A0004283F0CF0F5F1F4F1093C5020093C4021C
:1011B000B9CFDD24DA940091C6021091C7020E1552
:1011C0001F05C4F5F801EE0FFF1FEE0FFF1FE050E3
:1011D000FF4F268137810F5F1F4FF801EE0FFF1F72
:1011E000EE0FFF1FE050FF4F40819181842F62E09E
:1011F00070E00E94860C019729F4E7E0F0E0E21B22
:10120000F30B9F01D9821A82DB82642F822F0E9406
:1012100012050196BC01660F771F680F791F6F5F7B
:101220007D4FCE0101960E9426011093C7020093C4
:10123000C602C1CF4091E2029091E3022091E40204
:101240003091E502842F62E070E00E94860C0197E5
:1012500029F487E090E0821B930B9C0119828FEFA9
:101260008A838B83642F822F0E9412050196BC0112
:10127000660F771F680F791F6F5F7D4FCE01019654
:101280000E942601D090D5028091D8029091D90277
:10129000A091DA02B091DB02892B8A2B8B2BD9F03B
:1012A0000E94FE000091FD011091FE012091FF01BE
:1012B00030910002601B710B820B930B0091D802DE
:1012C0001091D9022091DA023091DB026017710788
:1012D00082079307C8F20E94FE006093FD0170939D
:1012E000FE018093FF0190930002E091E002F091F3
:1012F000E102309759F04091DC025091DD0260919B
:10130000DE027091DF028D2D0995D82EE090FB0151
:10131000F090FC014D2C512C712C612CE114F10446
:1013200009F460C0D7011C96BC91BC838091D602A1
:101330009091D7028436910510F4F7011486D701F5
:10134000ED91FC91828193819E838D8319821A8213
:101350001B82DD2091F187010A5F1F4FF0E0E0E082
:10136000D8012D918D01222321F11296CC90CC2011
:1013700001F130E050E040E02F5F3F4F4F4F5F4FB3
:10138000C301B2010E94760C9B01AC018C2D90E050
:10139000B0E0A0E0BC01CD016F5F7F4F8F4F9F4F4A
:1013A0000E94760CA1E0B0E0AC0FBD1FAE0FBF1FD6
:1013B0008C933196E330F10599F609811A812B81DE
:1013C000F7014585568562817381C701ED81FE81F4
:1013D0000995EC81D7011C96EC931C971496ED901F
:1013E000FC909CCF8091F9019091FA019C012F5FB4
:1013F0003F4F3093FA012093F90149970CF430CE16
:101400008FB7F8942091CD023091CE024091CF0257
:101410005091D0028FBF8091F5019091F601A0917B
:10142000F701B091F801281B390B4A0B5B0B21F433
:1014300021E030E040E050E08091F9019091FA0124
:10144000A8EEB3E08A9FB0018B9F700D9A9F700D3C
:101450001124072E000C880B990B0E94210B30934E
:10146000D7022093D6021092FA011092F9012FB7F9
:10147000F8948091CD029091CE02A091CF02B091CC
:10148000D0022FBF8093F5019093F601A093F7014E
:10149000B093F801E5CD8F929F92AF92BF92CF9219
:1014A000DF92EF92FF92CF93DF93EC016881798115
:1014B0008A819B81611571058105910521F464E2A2
:1014C00079ED8BE597E02DE133EF41E050E00E94AC
:1014D000EF0A49015A019B01AC01A7EAB1E40E945D
:1014E0000E0B6B017C01ACEEB4EFA50194010E94E0
:1014F0001C0BC60ED71EE81EF91EF7FE06C081E0C3
:10150000C81AD108E10880E8F80AC882D982EA82BC
:10151000FB82C701B6019F77DF91CF91FF90EF90DB
:10152000DF90CF90BF90AF909F908F9008958F9253
:101530009F92AF92BF92CF92DF92EF92FF92609113
:10154000AA017091AB018091AC019091AD01611540
:1015500071058105910521F464E279ED8BE597E051
:101560002DE133EF41E050E00E94EF0A49015A01BA
:101570009B01AC01A7EAB1E40E940E0B6B017C0158
:10158000ACEEB4EFA50194010E941C0BC60ED71E51
:10159000E81EF91EF7FE06C081E0C81AD108E1086E
:1015A00080E8F80AC092AA01D092AB01E092AC01A7
:1015B000F092AD01C701B6019F77FF90EF90DF90E9
:1015C000CF90BF90AF909F908F9008956093AA01A5
:1015D0007093AB018093AC019093AD010895052EFB
:1015E00097FB1EF400940E94060B57FD07D00E9443
:1015F000210B07FC03D04EF40C94060B509540953C
:10160000309521953F4F4F4F5F4F089590958095AE
:10161000709561957F4F8F4F9F4F08950E94430BA8
:10162000A59F900DB49F900DA49F800D911D112436
:101630000895B7FF0C940E0B0E940E0B821B930BA8
:101640000895A1E21A2EAA1BBB1BFD010DC0AA1F03
:10165000BB1FEE1FFF1FA217B307E407F50720F01B
:10166000A21BB30BE40BF50B661F771F881F991F96
:101670001A9469F760957095809590959B01AC01DF
:10168000BD01CF010895A29FB001B39FC001A39FE8
:10169000700D811D1124911DB29F700D811D1124AB
:1016A000911D08955058BB27AA270E946A0B0C94DD
:1016B000130C0E94050C38F00E940C0C20F039F439
:1016C0009F3F19F426F40C94020C0EF4E095E7FB0E
:1016D0000C94FC0BE92F0E94240C58F3BA176207F4
:1016E00073078407950720F079F4A6F50C94460C4F
:1016F0000EF4E0950B2EBA2FA02D0B01B90190012D
:101700000C01CA01A0011124FF27591B99F0593F70
:1017100050F4503E68F11A16F040A22F232F342FB8
:101720004427585FF3CF469537952795A795F04006
:101730005395C9F77EF41F16BA0B620B730B840B1B
:10174000BAF09150A1F0FF0FBB1F661F771F881FD3
:10175000C2F70EC0BA0F621F731F841F48F487952B
:1017600077956795B795F7959E3F08F0B0CF93951D
:10177000880F08F09927EE0F979587950895E894BC
:1017800009C097FB3EF490958095709561957F4FC9
:101790008F4F9F4F9923A9F0F92F96E9BB27939577
:1017A000F695879577956795B795F111F8CFFAF487
:1017B000BB0F11F460FF1BC06F5F7F4F8F4F9F4FB8
:1017C00016C0882311F096E911C0772321F09EE816
:1017D000872F762F05C0662371F096E8862F70E07C
:1017E00060E02AF09A95660F771F881FDAF7880F56
:1017F0009695879597F9089597F99F6780E870E027
:1018000060E008959FEF80EC089500240A94161676
:10181000170618060906089500240A9412161306DE
:10182000140605060895092E0394000C11F488236C
:1018300052F0BB0F40F4BF2B11F460FF04C06F5F88
:101840007F4F8F4F9F4F089557FD9058440F551F5E
:1018500059F05F3F71F04795880F97FB991F61F032
:101860009F3F79F087950895121613061406551FA9
:10187000F2CF4695F1DF08C0161617061806991F15
:10188000F1CF86957105610508940895E894BB270A
:1018900066277727CB0197F908950E94520C08F428
:1018A0008FEF0895990F0008550FAA0BE0E8FEEF9F
:1018B00016161706E807F907C0F012161306E40714
:1018C000F50798F0621B730B840B950B39F40A260D
:1018D00061F0232B242B252B21F408950A2609F4EB
:1018E000A140A6958FEF811D811D0895DB018F9387
:1018F0009F930E940E0BBF91AF91A29F800D911DEF
:10190000A39F900DB29F900D1124089597FB072E71
:1019100016F4009407D077FD09D00E94A10C07FCB3
:1019200005D03EF4909581959F4F089570956195EF
:101930007F4F08950E94430BB7FF0895821B930BBE
:101940000895AA1BBB1B51E107C0AA1FBB1FA61706
:10195000B70710F0A61BB70B881F991F5A95A9F758
:1019600080959095BC01CD010895EE0FFF1F059065
:10197000F491E02D099481E090E0F8940C94C00C6F
:04198000F894FFCF09
:101984000100050000000500010005000000000042
:101994000000000000000000000000000000000043
:1019A4000000000000000000000000000000000033
:1019B4000000000000000000000000000000000023
:1019C4000000000000000000000000000000000013
:1019D4000000000000000000000000000000000003
:1019E40000000000000000000000000000000000F3
:1019F40000000000000000000000000000000000E3
:101A040000000000000000000000000000000000D2
:101A140000000000000000000000000000000000C2
:101A240000000000020001000000010000000000AE
:101A340000004C054C054C052B0527056E042405B8
:101A440000000000CF04730471042B0527056E0405
:041A540023010D025B
:00000001FF
