:020000040000FA
:100000000C9462000C948A000C948A000C948A0070
:100010000C948A000C948A000C948A000C948A0038
:100020000C948A000C948A000C948A000C948A0028
:100030000C948A000C948A000C948A000C948A0018
:100040000C943C050C948A000C948A000C948A0051
:100050000C948A000C948A000C948A000C948A00F8
:100060000C948A000C948A000000000023002600F3
:10007000290000000008000201000003040700003E
:1000800000000000000000000000250028002B00F8
:1000900000000000240027002A00040404040404D3
:1000A0000404020202020202030303030303010227
:1000B00004081020408001020408102001020408F6
:1000C0001020860511241FBECFEFD8E0DEBFCDBFC4
:1000D00011E0A0E0B1E0ECE5F9E102C005900D927D
:1000E000A43DB107D9F722E0A4EDB1E001C01D9213
:1000F000A63EB207E1F710E0C2E6D0E004C02197C7
:10010000FE010E94A10CC136D107C9F70E94B905B2
:100110000C94AC0C0C940000CF93DF9390E0FC01A6
:10012000E255FF4F249186569F4FFC01849188230E
:10013000C1F090E0880F991FFC01E057FF4FC59177
:10014000D491FC01EA57FF4FA591B4919FB7F89461
:100150008881E22FE0958E2388838C91E823EC93AD
:100160009FBFDF91CF91089590E0FC01EE58FF4FC3
:100170002491FC01E255FF4F3491FC01E656FF4FFC
:10018000E491EE23C1F1222339F02330E9F090F419
:10019000213001F1223011F1F0E0EE0FFF1FE8599C
:1001A000FF4FA591B491EC91E32381E090E029F514
:1001B00080E008952730A9F02830C9F0243061F795
:1001C000809180008F7D03C0809180008F77809325
:1001D0008000E2CF84B58F7784BDDECF84B58F7D7C
:1001E000FBCF8091B0008F778093B000D5CF809106
:1001F000B0008F7DF9CF80E090E008953FB7F8948C
:100200008091D1029091D202A091D302B091D402F8
:1002100026B5A89B05C02F3F19F00196A11DB11D61
:100220003FBFBA2FA92F982F8827BC01CD01620F9D
:10023000711D811D911D42E0660F771F881F991F58
:100240004A95D1F7089580E991E008951F93DC0164
:10025000FB017C9111965C91119712961C91972F3E
:10026000990F990F990F35E5292F239F020E20E052
:10027000211D1124822F672F6074472F407277FD54
:1002800066C0611152C0411105C0922F9095892F0F
:1002900090E004C025E5280F90E08BEA5F3F09F469
:1002A00022C0552309F474C0509530E0552329F03D
:1002B000559F312D112451113F5F432F4095582FE9
:1002C000549F050E50E0511D852F249F020E20E003
:1002D000211D592F549F050E50E0511D952F1124BB
:1002E000830F230F930F1F3FD9F030E0112321F02C
:1002F000119F312D09F03F5F332309F44DC0482F82
:10030000439F040E40E0411D842F239F020E20E0F6
:10031000211D592F539F050E50E0511D952F11247B
:100320008083218392831F91089541110BC0392F3F
:100330002AEA329F030E30E0311D11249BEA931B01
:10034000280FA5CF90E02095982F80E0A7CF6111CE
:1003500012C041110CC0392F2AEA329F030E30E03F
:10036000311D11242BEA231B95E5930FEECF922F1D
:10037000909520E093CF411106C025E5280F9BEA18
:10038000981B822FF6CF2AEA280F90E0932FF8CF00
:100390009FEF2FEF8FEFA7CF90E020E080E0C0CF5E
:1003A0000F931F93CF93DF932091D5012F5F322FAF
:1003B00037703093D50120FF2BC020E831FD206439
:1003C000347009F02062205FFC01EC01239600E00C
:1003D00011E06485662329F070E0C8010E94720C68
:1003E0006F5F6187322F369F030E30E0311D11247D
:1003F000311110C01682662311F061506187319669
:10040000EC17FD0731F7DF91CF911F910F91089500
:1004100020E0D4CF31503683EECF4F925F927F925F
:100420008F929F92AF92BF92CF92DF92EF92FF9204
:100430000F931F93CF93DF932C01EB010E94FE00DB
:10044000F20127853089621B730B6A307105B0F3A6
:10045000F8948A819B81181619060CF0CDC1E881A9
:10046000F9816BB1862E689484F83BB13F7E3BB92D
:10047000DA848F812D2D281B822F2F834F85042E08
:10048000000C550BAA81BB817D85FC84EE847F5FC7
:10049000F394E3949E819884B984AB841181C12C38
:1004A0006C2D0C2D2C2D2181112788942111280FC2
:1004B00008F42FEF8195889470FD120F179588949A
:1004C00071FD120F1795889472FD120F179588947D
:1004D00073FD120F1795889474FD120F1795889469
:1004E00075FD120F1795889476FD120F1795889455
:1004F00077FD120F17958894622F7111612F8D0D62
:10050000162F002C8BB800C000C017FF3BB920810C
:100510006627889400C0002C3BB92111290F00C028
:10052000002C8BB800C000C016FF3BB908F42FEFB9
:100530009195889400C0002C3BB9F0FC620F00C07C
:10054000002C8BB800C000C015FF3BB9679588949C
:10055000F1FC620F00C0002C3BB96795889400C085
:10056000002C8BB800C000C014FF3BB9F2FC620F36
:100570006795889400C0002C3BB9F3FC620F00C063
:10058000002C8BB800C000C013FF3BB9679588945E
:10059000F4FC620F00C0002C3BB96795889400C042
:1005A000002C8BB800C000C012FF3BB9F5FC620FF5
:1005B0006795889400C0002C3BB9F6FC620F00C020
:1005C000002C8BB800C000C011FF3BB96795889420
:1005D000F7FC620F00C0002C3BB96795889400C0FF
:1005E000002C8BB800C000C010FF3BB9122FF110D7
:1005F000162F9B0D00C0002C3BB900C000C0002C82
:100600008BB800C000C017FF3BB9228166278894D1
:1006100000C0002C3BB92111290D00C0002C8BB863
:1006200000C000C016FF3BB908F42FEFE40FF51F20
:1006300000C0002C3BB9E0FC620F00C0002C8BB85E
:1006400000C000C015FF3BB967958894E1FC620FBC
:1006500000C0002C3BB96795889400C0002C8BB873
:1006600000C000C014FF3BB9E2FC620F679588949C
:1006700000C0002C3BB9E3FC620F00C0002C8BB81B
:1006800000C000C013FF3BB967958894E4FC620F7B
:1006900000C0002C3BB96795889400C0002C8BB833
:1006A00000C000C012FF3BB9E5FC620F679588945B
:1006B00000C0002C3BB9E6FC620F00C0002C8BB8D8
:1006C00000C000C011FF3BB967958894E7FC620F3A
:1006D00000C0002C3BB96795889400C0002C8BB8F3
:1006E00000C000C010FF3BB9122FE110162F9194EB
:1006F00000C0002C3BB99A0C00C000C08BB800C0F1
:1007000000C017FF3BB921816627889400C0002CE8
:100710003BB92111280F00C0002C8BB800C000C0CD
:1007200016FF3BB908F42FEF8195889400C0002C88
:100730003BB970FD620F00C0002C8BB800C000C038
:1007400015FF3BB96795889471FD620F00C0002CBE
:100750003BB96795889400C0002C8BB800C000C0DE
:1007600014FF3BB972FD620F6795889400C0002C9E
:100770003BB973FD620F00C0002C8BB800C000C0F5
:1007800013FF3BB96795889474FD620F00C0002C7D
:100790003BB96795889400C0002C8BB800C000C09E
:1007A00012FF3BB975FD620F6795889400C0002C5D
:1007B0003BB976FD620F00C0002C8BB800C000C0B2
:1007C00011FF3BB96795889477FD620F00C0002C3C
:1007D0003BB96795889400C0002C8BB800C000C05E
:1007E00010FF3BB9122F7111162F8D0D00C0002C78
:1007F0003BB9119709F086CE4A815B8120EE31E04A
:10080000DA010E94860CDC01CB01F4E0B695A795D5
:1008100097958795FA95D1F730E020E0B901EAE99C
:100820004E9F040E611D5E9F600D711D1124650FAA
:10083000711D860F971FA11DB11D893E43E09407CE
:10084000A105B10508F434C0885E9340A109B1093F
:1008500042E0B695A795979587954A95D1F747E0D9
:10086000849F080E211D949F200D311D1124290FF6
:10087000311D6091D40170E0860F971F820F931F86
:100880004091CD025091CE026091CF027091D00282
:10089000292F3327420F531F611D711D4093CD0235
:1008A0005093CE026093CF027093D0028093D40114
:1008B00078940E94FE00F201708B6787DF91CF91E0
:1008C0001F910F91FF90EF90DF90CF90BF90AF906E
:1008D0009F908F907F905F904F90089581E090E07F
:1008E0000895549A08956F927F928F92CF92DF92DB
:1008F000EF92FF920F931F93CF93DF93CDB7DEB7A5
:1009000062970FB6F894DEBF0FBECDBF6C017A01BF
:100910003801822EDC011C962C91CA0157FF04C0BD
:1009200088279927841B950B7A8369839C838B8303
:100930009E838D836D867E868F86213049F5CE011C
:1009400001960E94D00183E0888B1A8A198AF7FEEB
:1009500002C08DEF888BD601ED91FC910684F7855E
:10096000E02DBE016F5F7F4FC601099562960FB6FD
:10097000F894DEBF0FBECDBFDF91CF911F910F91D5
:10098000FF90EF90DF90CF908F907F906F900895C1
:100990001C861B861A86198618861F82D4CFEF9272
:1009A000FF920F931F93CF93DF93CDB7DEB762977C
:1009B0000FB6F894DEBF0FBECDBF7C01DC011C96E4
:1009C0008C917A8369835C834B835E834D830D872F
:1009D0001E872F878130F9F4CE0101960E94D00145
:1009E000188A1A8A198AD701ED91FC910684F78535
:1009F000E02DBE016F5F7F4FC701099562960FB66C
:100A0000F894DEBF0FBECDBFDF91CF911F910F9144
:100A1000FF90EF9008951C861B861A86198618860B
:100A20001F82DECF90E080E00895FC0185859685E9
:100A300008950F931F93CF93DF9300D01F92CDB7EC
:100A4000DEB7AB0119821A821B82DC01ED91FC91A9
:100A50000190F081E02D00E010E020E0BE016F5F2A
:100A60007F4F09950F900F900F90DF91CF911F91BD
:100A70000F9108950E94A70C1F920F920FB60F922C
:100A800011242F933F938F939F93AF93BF938091A4
:100A9000CD029091CE02A091CF02B091D0023091C0
:100AA000CC0223E0230F2D3758F50196A11DB11D6F
:100AB0002093CC028093CD029093CE02A093CF02DC
:100AC000B093D0028091D1029091D202A091D30232
:100AD000B091D4020196A11DB11D8093D1029093D3
:100AE000D202A093D302B093D402BF91AF919F9151
:100AF0008F913F912F910F900FBE0F901F901895DF
:100B000026E8230F0296A11DB11DD2CFCF92DF920E
:100B1000EF92FF92CF93DF93E5EDF2E08FEF8083CA
:100B200012821182148613868FEF9FEFDC01878378
:100B30009087A187B2870E94830AC2EED2E028E0A4
:100B4000C22ED12CE12CF12CA70196010E94DB0AC8
:100B5000798368830E94830AA70196010E94DB0AB9
:100B60007B836A83DF91CF91FF90EF90DF90CF90EE
:100B70000895CF93DF9300D000D000D0CDB7DEB77B
:100B8000789484B5826084BD84B5816084BD85B568
:100B9000826085BD85B5816085BD80916E00816074
:100BA00080936E001092810080918100826080931A
:100BB000810080918100816080938100809180001C
:100BC0008160809380008091B10084608093B10047
:100BD0008091B00081608093B00080917A00846041
:100BE00080937A0080917A00826080937A0080916D
:100BF0007A00816080937A0080917A008068809387
:100C00007A001092C1008091E901811145C01092D3
:100C1000DB011092DA018FEF8093DE018093DF0118
:100C20008093E0018093E1018093E2018093E301EE
:100C300081E08093E4011092E6011092E5011092A8
:100C4000DD011092DC018091FB019091FC01892B68
:100C500031F488ED91E09093FC018093FB01E091E9
:100C6000D601F091D701309721F088ED91E095837E
:100C7000848388ED91E09093D7018093D601109200
:100C8000E8011092E70184EC91E09093D901809300
:100C9000D80181E08093E901549A84E092E0909336
:100CA000DB018093DA0180E490E09093E601809389
:100CB000E5018091D8029091D902A091DA02B09119
:100CC000DB02843C29E09207A105B10520F484EC05
:100CD00099E0A0E0B0E08093D8029093D902A0936D
:100CE000DA02B093DB028FEF8093DE0180EB80931A
:100CF000DF0180EF8093E0018AEF8093D50280E0EE
:100D00000E948C0081E00E948C0082E00E948C0096
:100D100083E00E948C0058E0452E512C612C712CF0
:100D200022242394312C2FB7F8946091CD02709136
:100D3000CE028091CF029091D0022FBF0E94AB0BC8
:100D40006B017C012091F1013091F2014091F3019E
:100D50005091F4010E943E0BC092F101D092F20139
:100D6000E092F301F092F4012091C8023091C9029F
:100D70004091CA025091CB020E943F0B4B015C0193
:100D80008092C8029092C902A092CA02B092CB028D
:100D900080E00E94B4006C0181E00E94B4007C01FC
:100DA00082E00E94B4008C0183E00E94B400EA94C7
:100DB000EF2809F05EC02091A8013091A901232BF2
:100DC00009F06AC01092A7011092A601EFEFFFEFA1
:100DD000F093A901E093A8012BEA3AEA46EA53E42A
:100DE000C501B4010E94390C18160CF02DC11092E7
:100DF000C8021092C9021092CA021092CB0210923D
:100E0000C5021092C4020091C4021091C5020830BC
:100E100011050CF068C01092C7021092C60278014A
:100E2000FF2443E0EE0CFF1C4A95E1F7C090C60298
:100E3000D090C70298E0C916D1040CF04DC01982B9
:100E40001A821B82C7018C0D911D0196BC01660F91
:100E5000771F680F791F6F5F7D4FCE0101960E944B
:100E60002601AFEFCA1ADA0AD092C702C092C602B0
:100E7000DDCFF1E0CF16D10479F42091A8013091B3
:100E8000A901232B49F41092A7011092A601D09238
:100E9000A901C092A801A0CF0130110591F4809161
:100EA000A6019091A701892B09F096CF8FEF9FEFB4
:100EB0009093A7018093A6011092A9011092A80116
:100EC0008BCF8130910509F087CF2091A601309119
:100ED000A701232B69F380CF0F5F1F4F1093C5022B
:100EE0000093C40290CFE0900001F0900101809146
:100EF000A6019091A701E80EF91E00910201109140
:100F000003018091A8019091A901080F191FB8E071
:100F1000EB16F10479F0EFEFEE16FE0609F49CC033
:100F20000830110509F49CC00F3F100729F407E0B1
:100F300010E002C0F12CE12C8091A4019091A50158
:100F4000E0E0F1E0DF0130E020E0281739070CF0A5
:100F50008EC014964D915C9115974E155F0509F062
:100F600082C016964D915C9117974017510709F072
:100F70007AC03093C7022093C6020E94FE004B0144
:100F80005C0198EEC92E93E0D92EE12CF12C0E9441
:100F9000FE00681979098A099B09683E734081053A
:100FA0009105A8F321E0C21AD108E108F10888EE02
:100FB000880E83E0981EA11CB11CC114D104E10469
:100FC000F10429F786EAE4E0F1E011928A95E9F765
:100FD000309201012092000185E090E0909303019E
:100FE00080930201909307018093060130920901DA
:100FF0002092080190930B0180930A01A2E0B0E0D7
:10100000B093A501A093A4013092A7012092A6015C
:101010000E94830A6B017C010E94830A4B015C01E0
:10102000C701B601A30192010E94DB0A7093E3029B
:101030006093E202C501B401A30192010E94DB0AA0
:101040007093E5026093E402E0E0F0E0EF2B09F436
:101050006ACE0E94000067CE27E0E22EF12C6CCF12
:1010600010E000E069CF2F5F3F4F14966ECF3093B2
:10107000C7022093C6022091E2023091E302E216F9
:10108000F30609F077C02091E4023091E5020217DF
:10109000130709F06FC001969093A5018093A401F6
:1010A0000E94830AA30192010E94DB0A7093E3026B
:1010B0006093E2020E94830AA30192010E94DB0A6C
:1010C0007093E5026093E402C090A401D090A50162
:1010D000F601EE0FFF1FEE0FFF1FE050FF4FF182F2
:1010E000E082F601EE0FFF1FEE0FFF1FE450FF4FEF
:1010F00017830683F0920101E0920001109303012F
:10110000009302011092C5021092C402E090C40242
:10111000F090C5021092C7021092C602B8E0EB161A
:10112000F1040CF041C05701BB24A3E0AA0CBB1C86
:10113000AA95E1F70091C6021091C7020830110587
:101140005CF519821A821B82C501800F911D0196E0
:10115000BC01660F771F680F791F6F5F7D4FCE014F
:1011600001960E9426010F5F1F4F1093C702009344
:10117000C602E0CF30E020E02F5F3F4F34962817C3
:1011800039070CF0A1CF44815581518340834681BA
:10119000578153834283F0CFEFEFEE1AFE0AF092AD
:1011A000C502E092C402B2CFFF24FA940091C602B5
:1011B0001091C7020C151D058CF5F801EE0FFF1FED
:1011C000EE0FFF1FE050FF4F66810F5F1F4FF801CA
:1011D000EE0FFF1FEE0FFF1FE050FF4F8081918148
:1011E000F9821A82FB82992773E0880F991F7A95FA
:1011F000E1F7680F792F711D6F5F7F4FCB01880F6B
:10120000991F680F791F6F5F7D4FCE0101960E9475
:1012100026011093C7020093C602C8CF6091E40272
:1012200019828FEF8A838B838091E2029091E3028F
:10123000992723E0880F991F2A95E1F7680F792FE6
:10124000711D6F5F7F4FCB01880F991F680F791F4A
:101250006F5F7D4FCE0101960E942601D090D5028E
:101260008091D8029091D902A091DA02B091DB026C
:10127000892B8A2B8B2BD9F00E94FE000091FD0157
:101280001091FE012091FF0130910002601B710B53
:10129000820B930B0091D8021091D9022091DA02AF
:1012A0003091DB026017710782079307C8F20E9432
:1012B000FE006093FD017093FE018093FF01909307
:1012C0000002E091E002F091E102309759F0409184
:1012D000DC025091DD026091DE027091DF028D2D03
:1012E0000995D82EE090FB01F090FC018D2C912CFB
:1012F000B12CA12CE114F10409F460C0D7011C96B3
:10130000BC91BC838091D6029091D702843691051E
:1013100010F4F7011486D701ED91FC91828193813D
:101320009E838D8319821A821B82DD2091F18701B1
:101330000A5F1F4FF0E0E0E0D8012D918D012223DC
:1013400021F11296CC90CC2001F130E050E040E049
:101350002F5F3F4F4F4F5F4FC501B4010E94620C9A
:101360009B01AC018C2D90E0B0E0A0E0BC01CD0170
:101370006F5F7F4F8F4F9F4F0E94620CA1E0B0E0E4
:10138000AC0FBD1FAE0FBF1F8C933196E330F1053C
:1013900099F609811A812B81F7014585568562816D
:1013A0007381C701ED81FE810995EC81D7011C96FF
:1013B000EC931C971496ED90FC909CCF8091F901D2
:1013C0009091FA019C012F5F3F4F3093FA012093D7
:1013D000F90149970CF438CE8FB7F8942091CD02DB
:1013E0003091CE024091CF025091D0028FBF8091B8
:1013F000F5019091F601A091F701B091F801281B39
:10140000390B4A0B5B0B21F421E030E040E050E067
:101410008091F9019091FA01A8EEB3E08A9FB001A2
:101420008B9F700D9A9F700D1124072E000C880B56
:10143000990B0E940D0B3093D7022093D602109285
:10144000FA011092F9012FB7F8948091CD02909192
:10145000CE02A091CF02B091D0022FBF8093F501B0
:101460009093F601A093F701B093F801EDCD8F9220
:101470009F92AF92BF92CF92DF92EF92FF92CF9363
:10148000DF93EC01688179818A819B816115710507
:101490008105910521F464E279ED8BE597E02DE17A
:1014A00033EF41E050E00E94DB0A49015A019B0101
:1014B000AC01A7EAB1E40E94FA0A6B017C01ACEE30
:1014C000B4EFA50194010E94080BC60ED71EE81EBA
:1014D000F91EF7FE06C081E0C81AD108E10880E8CD
:1014E000F80AC882D982EA82FB82C701B6019F77D7
:1014F000DF91CF91FF90EF90DF90CF90BF90AF90B2
:101500009F908F9008958F929F92AF92BF92CF92AB
:10151000DF92EF92FF926091AA017091AB018091EE
:10152000AC019091AD01611571058105910521F422
:1015300064E279ED8BE597E02DE133EF41E050E097
:101540000E94DB0A49015A019B01AC01A7EAB1E400
:101550000E94FA0A6B017C01ACEEB4EFA501940184
:101560000E94080BC60ED71EE81EF91EF7FE06C025
:1015700081E0C81AD108E10880E8F80AC092AA01FF
:10158000D092AB01E092AC01F092AD01C701B6017F
:101590009F77FF90EF90DF90CF90BF90AF909F909C
:1015A0008F9008956093AA017093AB018093AC0172
:1015B0009093AD010895052E97FB1EF400940E94B0
:1015C000F20A57FD07D00E940D0B07FC03D04EF422
:1015D0000C94F20A50954095309521953F4F4F4F0E
:1015E0005F4F089590958095709561957F4F8F4FCF
:1015F0009F4F08950E942F0BA59F900DB49F900DB3
:10160000A49F800D911D11240895B7FF0C94FA0A30
:101610000E94FA0A821B930B0895A1E21A2EAA1BBC
:10162000BB1BFD010DC0AA1FBB1FEE1FFF1FA21792
:10163000B307E407F50720F0A21BB30BE40BF50B8F
:10164000661F771F881F991F1A9469F76095709518
:10165000809590959B01AC01BD01CF010895A29F9B
:10166000B001B39FC001A39F700D811D1124911D76
:10167000B29F700D811D1124911D08955058BB27F4
:10168000AA270E94560B0C94FF0B0E94F10B38F016
:101690000E94F80B20F039F49F3F19F426F40C94C3
:1016A000EE0B0EF4E095E7FB0C94E80BE92F0E949B
:1016B000100C58F3BA17620773078407950720F0D8
:1016C00079F4A6F50C94320C0EF4E0950B2EBA2F9B
:1016D000A02D0B01B90190010C01CA01A001112438
:1016E000FF27591B99F0593F50F4503E68F11A16E4
:1016F000F040A22F232F342F4427585FF3CF469575
:1017000037952795A795F0405395C9F77EF41F1696
:10171000BA0B620B730B840BBAF09150A1F0FF0F60
:10172000BB1F661F771F881FC2F70EC0BA0F621F4C
:10173000731F841F48F4879577956795B795F7953C
:101740009E3F08F0B0CF9395880F08F09927EE0FD1
:10175000979587950895E89409C097FB3EF4909576
:101760008095709561957F4F8F4F9F4F9923A9F07A
:10177000F92F96E9BB279395F69587957795679509
:10178000B795F111F8CFFAF4BB0F11F460FF1BC04D
:101790006F5F7F4F8F4F9F4F16C0882311F096E9E0
:1017A00011C0772321F09EE8872F762F05C066238E
:1017B00071F096E8862F70E060E02AF09A95660F47
:1017C000771F881FDAF7880F9695879597F9089500
:1017D00097F99F6780E870E060E008959FEF80ECE4
:1017E000089500240A941616170618060906089587
:1017F00000240A9412161306140605060895092EED
:101800000394000C11F4882352F0BB0F40F4BF2B5B
:1018100011F460FF04C06F5F7F4F8F4F9F4F08959B
:1018200057FD9058440F551F59F05F3F71F0479591
:10183000880F97FB991F61F09F3F79F08795089576
:10184000121613061406551FF2CF4695F1DF08C095
:10185000161617061806991FF1CF869571056105B2
:1018600008940895E894BB2766277727CB0197F95A
:1018700008950E943E0C08F48FEF0895990F000818
:10188000550FAA0BE0E8FEEF16161706E807F90752
:10189000C0F012161306E407F50798F0621B730BED
:1018A000840B950B39F40A2661F0232B242B252B6E
:1018B00021F408950A2609F4A140A6958FEF811D11
:1018C000811D0895DB018F939F930E94FA0ABF91B7
:1018D000AF91A29F800D911DA39F900DB29F900D7F
:1018E0001124089597FB072E16F4009407D077FD76
:1018F00009D00E948D0C07FC05D03EF4909581958F
:101900009F4F0895709561957F4F08950E942F0B0A
:10191000B7FF0895821B930B0895AA1BBB1B51E1CF
:1019200007C0AA1FBB1FA617B70710F0A61BB70B4F
:10193000881F991F5A95A9F780959095BC01CD01F4
:101940000895EE0FFF1F0590F491E02D099481E0BA
:1019500090E0F8940C94AC0CF894FFCF01000500D3
:10196000000005000100050000000000000000006C
:101970000000000000000000000000000000000067
:101980000000000000000000000000000000000057
:101990000000000000000000000000000000000047
:1019A0000000000000000000000000000000000037
:1019B0000000000000000000000000000000000027
:1019C0000000000000000000000000000000000017
:1019D0000000000000000000000000000000000007
:1019E00000000000000000000000000000000000F7
:1019F00000000000000000000000000000000000E7
:101A000002000100000001000000000000003A0593
:101A10003A053A05190515056E0412050000000087
:101A2000CF0473047104190515056E0423010D021A
:107E0000112484B714BE81FFF0D085E080938100F7
:107E100082E08093C00088E18093C10086E0809377
:107E2000C20080E18093C4008EE0C9D0259A86E02C
:107E300020E33CEF91E0309385002093840096BBD3
:107E4000B09BFECF1D9AA8958150A9F7CC24DD24C4
:107E500088248394B5E0AB2EA1E19A2EF3E0BF2EE7
:107E6000A2D0813461F49FD0082FAFD0023811F036
:107E7000013811F484E001C083E08DD089C08234E0
:107E800011F484E103C0853419F485E0A6D080C0E4
:107E9000853579F488D0E82EFF2485D0082F10E0AE
:107EA000102F00270E291F29000F111F8ED06801E7
:107EB0006FC0863521F484E090D080E0DECF843638
:107EC00009F040C070D06FD0082F6DD080E0C81688
:107ED00080E7D80618F4F601B7BEE895C0E0D1E017
:107EE00062D089930C17E1F7F0E0CF16F0E7DF06D8
:107EF00018F0F601B7BEE89568D007B600FCFDCFD4
:107F0000A601A0E0B1E02C9130E011968C91119780
:107F100090E0982F8827822B932B1296FA010C0160
:107F200087BEE89511244E5F5F4FF1E0A038BF0790
:107F300051F7F601A7BEE89507B600FCFDCF97BE46
:107F4000E89526C08437B1F42ED02DD0F82E2BD052
:107F50003CD0F601EF2C8F010F5F1F4F84911BD097
:107F6000EA94F801C1F70894C11CD11CFA94CF0C13
:107F7000D11C0EC0853739F428D08EE10CD085E9AC
:107F80000AD08FE07ACF813511F488E018D01DD067
:107F900080E101D065CF982F8091C00085FFFCCF94
:107FA0009093C60008958091C00087FFFCCF809118
:107FB000C00084FD01C0A8958091C6000895E0E648
:107FC000F0E098E1908380830895EDDF803219F02E
:107FD00088E0F5DFFFCF84E1DECF1F93182FE3DFCA
:107FE0001150E9F7F2DF1F91089580E0E8DFEE27F6
:047FF000FF270994CA
:027FFE00040479
:00000001FF
