:100000000C9462000C948A000C948A000C948A0070
:100010000C948A000C948A000C948A000C948A0038
:100020000C948A000C948A000C948A000C948A0028
:100030000C948A000C948A000C948A000C948A0018
:100040000C9492040C948A000C948A000C948A00FC
:100050000C948A000C948A000C948A000C948A00F8
:100060000C948A000C948A000000000023002600F3
:10007000290000000008000201000003040700003E
:1000800000000000000000000000250028002B00F8
:1000900000000000240027002A00040404040404D3
:1000A0000404020202020202030303030303010227
:1000B00004081020408001020408102001020408F6
:1000C0001020DC0411241FBECFEFD8E0DEBFCDBF6F
:1000D00011E0A0E0B1E0E6EEF7E102C005900D927C
:1000E000A43DB107D9F723E0A4EDB1E001C01D9212
:1000F000A63AB207E1F710E0C2E6D0E004C02197CB
:10010000FE010E94E60BC136D107C9F70E94060521
:100110000C94F10B0C940000CF93DF9390E0FC0162
:10012000E255FF4F249186569F4FFC01849188230E
:10013000C1F090E0880F991FFC01E057FF4FC59177
:10014000D491FC01EA57FF4FA591B4919FB7F89461
:100150008881E22FE0958E2388838C91E823EC93AD
:100160009FBFDF91CF91089590E0FC01EE58FF4FC3
:100170002491FC01E255FF4F3491FC01E656FF4FFC
:10018000E491EE23C1F1222339F02330E9F090F419
:10019000213001F1223011F1F0E0EE0FFF1FE8599C
:1001A000FF4FA591B491EC91E32381E090E029F514
:1001B00080E008952730A9F02830C9F0243061F795
:1001C000809180008F7D03C0809180008F77809325
:1001D0008000E2CF84B58F7784BDDECF84B58F7D7C
:1001E000FBCF8091B0008F778093B000D5CF809106
:1001F000B0008F7DF9CF80E090E008953FB7F8948C
:100200008091910390919203A0919303B0919403F4
:1002100026B5A89B05C02F3F19F00196A11DB11D61
:100220003FBFBA2FA92F982F8827BC01CD01620F9D
:10023000711D811D911D42E0660F771F881F991F58
:100240004A95D1F7089580E991E008950F931F939F
:10025000CF93DF932091D5012F5F322F37703093EA
:10026000D50120FF2BC020E831FD2064347009F057
:100270002062205FFC01EC01239600E011E0648520
:10028000662329F070E0C8010E94B70B6F5F618799
:10029000322F369F030E30E0311D1124311110C072
:1002A0001682662311F0615061873196EC17FD07C5
:1002B00031F7DF91CF911F910F91089520E0D4CFB6
:1002C00031503683EECF4F925F927F928F929F9202
:1002D000AF92BF92CF92DF92EF92FF920F931F9354
:1002E000CF93DF932C01EB010E94FE00F2012785E2
:1002F0003089621B730B6A307105B0F3F8948A8100
:100300009B81181619060CF0CDC1E881F9816BB1FB
:10031000862E689484F83BB13F7E3BB9DA848F81A6
:100320002D2D281B822F2F834F85042E000C550B5B
:10033000AA81BB817D85FC84EE847F5FF394E39486
:100340009E819884B984AB841181C12C6C2D0C2DB5
:100350002C2D2181112788942111280F08F42FEFCB
:100360008195889470FD120F1795889471FD120F76
:100370001795889472FD120F1795889473FD120FCC
:100380001795889474FD120F1795889475FD120FB8
:100390001795889476FD120F1795889477FD120FA4
:1003A00017958894622F7111612F8D0D162F002CD7
:1003B0008BB800C000C017FF3BB920816627889426
:1003C00000C0002C3BB92111290F00C0002C8BB8B4
:1003D00000C000C016FF3BB908F42FEF9195889438
:1003E00000C0002C3BB9F0FC620F00C0002C8BB8A1
:1003F00000C000C015FF3BB967958894F1FC620FFF
:1004000000C0002C3BB96795889400C0002C8BB8C5
:1004100000C000C014FF3BB9F2FC620F67958894DE
:1004200000C0002C3BB9F3FC620F00C0002C8BB85D
:1004300000C000C013FF3BB967958894F4FC620FBD
:1004400000C0002C3BB96795889400C0002C8BB885
:1004500000C000C012FF3BB9F5FC620F679588949D
:1004600000C0002C3BB9F6FC620F00C0002C8BB81A
:1004700000C000C011FF3BB967958894F7FC620F7C
:1004800000C0002C3BB96795889400C0002C8BB845
:1004900000C000C010FF3BB9122FF110162F9B0DAA
:1004A00000C0002C3BB900C000C0002C8BB800C0BD
:1004B00000C017FF3BB922816627889400C0002C3A
:1004C0003BB92111290D00C0002C8BB800C000C021
:1004D00016FF3BB908F42FEFE40FF51F00C0002C06
:1004E0003BB9E0FC620F00C0002C8BB800C000C01C
:1004F00015FF3BB967958894E1FC620F00C0002CA2
:100500003BB96795889400C0002C8BB800C000C030
:1005100014FF3BB9E2FC620F6795889400C0002C81
:100520003BB9E3FC620F00C0002C8BB800C000C0D8
:1005300013FF3BB967958894E4FC620F00C0002C60
:100540003BB96795889400C0002C8BB800C000C0F0
:1005500012FF3BB9E5FC620F6795889400C0002C40
:100560003BB9E6FC620F00C0002C8BB800C000C095
:1005700011FF3BB967958894E7FC620F00C0002C1F
:100580003BB96795889400C0002C8BB800C000C0B0
:1005900010FF3BB9122FE110162F919400C0002CD0
:1005A0003BB99A0C00C000C08BB800C000C017FF58
:1005B0003BB921816627889400C0002C3BB92111EA
:1005C000280F00C0002C8BB800C000C016FF3BB93C
:1005D00008F42FEF8195889400C0002C3BB970FD82
:1005E000620F00C0002C8BB800C000C015FF3BB9E3
:1005F0006795889471FD620F00C0002C3BB9679528
:10060000889400C0002C8BB800C000C014FF3BB918
:1006100072FD620F6795889400C0002C3BB973FD92
:10062000620F00C0002C8BB800C000C013FF3BB9A4
:100630006795889474FD620F00C0002C3BB96795E4
:10064000889400C0002C8BB800C000C012FF3BB9DA
:1006500075FD620F6795889400C0002C3BB976FD4C
:10066000620F00C0002C8BB800C000C011FF3BB966
:100670006795889477FD620F00C0002C3BB96795A1
:10068000889400C0002C8BB800C000C010FF3BB99C
:10069000122F7111162F8D0D00C0002C3BB9119730
:1006A00009F086CE4A815B8120EE31E0DA010E94BA
:1006B000CB0BDC01CB01F4E0B695A7959795879518
:1006C000FA95D1F730E020E0B901EAE94E9F040E37
:1006D000611D5E9F600D711D1124650F711D860FD8
:1006E000971FA11DB11D893E43E09407A105B105E7
:1006F00008F434C0885E9340A109B10942E0B69580
:10070000A795979587954A95D1F747E0849F080E5E
:10071000211D949F200D311D1124290F311D609141
:10072000D40170E0860F971F820F931F40918D03B5
:1007300050918E0360918F0370919003292F33277E
:10074000420F531F611D711D40938D0350938E0303
:1007500060938F03709390038093D40178940E94E8
:10076000FE00F201708B6787DF91CF911F910F918F
:10077000FF90EF90DF90CF90BF90AF909F908F90C1
:100780007F905F904F90089581E090E00895549A93
:1007900008956F927F928F92CF92DF92EF92FF92A5
:1007A0000F931F93CF93DF93CDB7DEB762970FB64A
:1007B000F894DEBF0FBECDBF6C017A013801822EE6
:1007C000DC011C962C91CA0157FF04C08827992789
:1007D000841B950B7A8369839C838B839E838D8393
:1007E0006D867E868F86213049F5CE0101960E9466
:1007F000260183E0888B1A8A198AF7FE02C08DEFE2
:10080000888BD601ED91FC910684F785E02DBE0121
:100810006F5F7F4FC601099562960FB6F894DEBFF1
:100820000FBECDBFDF91CF911F910F91FF90EF9041
:10083000DF90CF908F907F906F9008951C861B86DD
:100840001A86198618861F82D4CFEF92FF920F93D3
:100850001F93CF93DF93CDB7DEB762970FB6F894AF
:10086000DEBF0FBECDBF7C01DC011C968C917A836C
:1008700069835C834B835E834D830D871E872F873F
:100880008130F9F4CE0101960E942601188A1A8A55
:10089000198AD701ED91FC910684F785E02DBE0100
:1008A0006F5F7F4FC701099562960FB6F894DEBF60
:1008B0000FBECDBFDF91CF911F910F91FF90EF90B1
:1008C00008951C861B861A86198618861F82DECF1D
:1008D00090E080E00895FC018585968508950F934A
:1008E0001F93CF93DF9300D01F92CDB7DEB7AB013C
:1008F00019821A821B82DC01ED91FC910190F0813A
:10090000E02D00E010E020E0BE016F5F7F4F099511
:100910000F900F900F90DF91CF911F910F9108953D
:100920000E94EC0B1F920F920FB60F9211242F937F
:100930003F938F939F93AF93BF9380918D0390913B
:100940008E03A0918F03B091900330918C0323E02C
:10095000230F2D3758F50196A11DB11D20938C034F
:1009600080938D0390938E03A0938F03B093900395
:100970008091910390919203A0919303B09194037D
:100980000196A11DB11D8093910390939203A093B2
:100990009303B0939403BF91AF919F918F913F9137
:1009A0002F910F900FBE0F901F90189526E8230FE0
:1009B0000296A11DB11DD2CFCF93DF93E5E9F3E0FD
:1009C0008FEF808312821182148613868FEF9FEF40
:1009D000DC0187839087A187B2870E94C809C2EA99
:1009E000D3E020E130E040E050E00E94200A79832B
:1009F00068830E94C80928E030E040E050E00E948F
:100A0000200A7B836A83DF91CF910895CF93DF9390
:100A100000D000D000D01F92CDB7DEB7789484B557
:100A2000826084BD84B5816084BD85B5826085BDEA
:100A300085B5816085BD80916E00816080936E0078
:100A4000109281008091810082608093810080916A
:100A5000810081608093810080918000816080931B
:100A600080008091B10084608093B1008091B000DB
:100A700081608093B00080917A00846080937A00D6
:100A800080917A00826080937A0080917A00816000
:100A900080937A0080917A00806880937A00109227
:100AA000C1008091E901811145C01092DB011092D3
:100AB000DA018FEF8093DE018093DF018093E00104
:100AC0008093E1018093E2018093E30181E08093D0
:100AD000E4011092E6011092E5011092DD011092FE
:100AE000DC018091FD019091FE01892B31F488EDAC
:100AF00091E09093FE018093FD01E091D601F09189
:100B0000D701309721F088ED91E09583848388EDBB
:100B100091E09093D7018093D6011092E801109252
:100B2000E70184EC91E09093D9018093D80181E0B2
:100B30008093E901549A86E092E09093DB018093E0
:100B4000DA0180E890E09093E6018093E5018091DE
:100B5000980390919903A0919A03B0919B03843CD0
:100B600029E09207A105B10520F484EC99E0A0E00A
:100B7000B0E08093980390939903A0939A03B09365
:100B80009B038FEF8093DE0180EB8093DF0180EF8A
:100B90008093E0018AEF8093950380E00E948C00AF
:100BA00081E00E948C0082E00E948C0083E00E9421
:100BB0008C0008E0402E512C612C712C22242A94A8
:100BC000322C2FB7F89460918D0370918E03809131
:100BD0008F03909190032FBF0E94F00A4B015C019C
:100BE0002091F1013091F2014091F3015091F40113
:100BF0000E94830A8092F1019092F201A092F30187
:100C0000B092F401209188033091890340918A03C6
:100C100050918B030E94840A6B017C01C09288036F
:100C2000D0928903E0928A03F0928B0380E00E94C5
:100C3000B4008C0181E00E94B4005C0182E00E945B
:100C4000B4004C0183E00E94B400AA94AB2809F0E0
:100C50007BC02091A8013091A901232B09F086C007
:100C60001092A7011092A6013092A9012092A8012A
:100C70002BEA3AEA46EA53E4C701B6010E947E0B2A
:100C800018160CF052C1109288031092890310922A
:100C90008A0310928B031092F6011092F501A0E0E6
:100CA0008091F5019091F601803191050CF087C09B
:100CB0001092870310928603BC01772713E0660F1A
:100CC000771F1A95E1F740918603509187034830CA
:100CD00051050CF06EC0FB01E40FF11D31969F0130
:100CE000220F331FE20FF31FED5FFD4F2A2F35E573
:100CF000239F020E20E0211D11242A2F222321F000
:100D0000229F212D09F02F5F30E0B0E0222391F0E7
:100D10001FEF129F010E10E0111D3FEF329F030ED7
:100D200030E0311DB32F3FEF329F030E30E0311D15
:100D30001124212F2083B18332834F5F5F4F509363
:100D4000870340938603BFCF0130110579F42091CA
:100D5000A8013091A901232B49F41092A701109208
:100D6000A6011093A9010093A80182CF8A94892833
:100D700081F48091A6019091A701892B09F078CF89
:100D80003092A7012092A6011092A9011092A80109
:100D90006FCF8130910509F06BCF2091A601309182
:100DA000A701232B09F064CF9093A7018093A6019C
:100DB000EBCF01969093F6018093F50171CFE0900F
:100DC0000001F09001018091A6019091A701E80E29
:100DD000F91E00910201109103018091A8019091E8
:100DE000A901080F191F80E1E816F10479F09FEFBF
:100DF000E916F90609F4A1C00830110509F4A1C0EB
:100E00000F3F100729F407E010E002C0F12CE12C9D
:100E10008091A4019091A501E0E0F1E0DF0130E0D4
:100E200020E0281739070CF093C014964D915C917F
:100E300015974E155F0509F087C016964D915C9188
:100E400017974017510709F07FC03093870320930D
:100E500086030E94FE006B017C0118EE812E13E0D8
:100E6000912EA12CB12C0E94FE006C197D098E09D7
:100E70009F09683E734081059105A8F3B1E08B1A84
:100E80009108A108B108E8EECE0EE3E0DE1EE11CF9
:100E9000F11C81149104A104B10429F7E4E0F1E00C
:100EA00086EADF011D928A95E9F781E090E0909350
:100EB00001018093000125E030E03093030120938D
:100EC000020130930701209306019093090180935A
:100ED000080130930B0120930A0122E030E03093A7
:100EE000A5012093A4019093A7018093A6010E94DD
:100EF000C8096B017C010E94C8094B015C01C70154
:100F0000B60120E130E040E050E00E94200A7093FA
:100F1000A3036093A203C501B401A30192010E943F
:100F2000200A7093A5036093A40380E090E0892BCE
:100F300009F447CE0E94000044CE8FE0E82EF12C49
:100F400067CF10E000E064CF2F5F3F4F149669CF6A
:100F500030938703209386032091A2033091A3034B
:100F6000E216F30609F086C02091A4033091A50390
:100F70000217130709F07EC001969093A501809394
:100F8000A4010E94C80920E130E040E050E00E9446
:100F9000200A7093A3036093A2030E94C809A301CF
:100FA00092010E94200A7093A5036093A4034091CC
:100FB000A4015091A501FA01EE0FFF1FEE0FFF1FD4
:100FC000E050FF4FF182E082FA01EE0FFF1FEE0FBB
:100FD000FF1FE450FF4F17830683F0920101E09258
:100FE00000011093030100930201109287031092F5
:100FF0008603B8EFA0E02091860330918703241781
:1010000035070CF049C0B9016F5F7F4FFB01EE0F50
:10101000FF1FEE0FFF1FE050FF4F80819181992746
:1010200003E0880F991F0A95E1F7220F331F220F63
:10103000331FF901E050FF4F2681280F392F311D52
:101040002F5F3F4FC901880F991F820F931FFC012B
:10105000ED5FFD4F2B2F35E5239F020E20E0211D74
:1010600011248FEF80838183828370938703609341
:101070008603C1CF30E020E02F5F3F4F3496281722
:1010800039070CF094CF44815581518340834681C8
:10109000578153834283F0CF8091A2039091A303A1
:1010A000992723E0880F991F2A95E1F7E091A4037F
:1010B0008E0F911D0196FC01EE0FFF1FE80FF91F27
:1010C000ED5FFD4F80E0282F35E5239F020E20E0E5
:1010D000211D1124822F8095808321831282B0905C
:1010E00095038091980390919903A0919A03B091F0
:1010F0009B03892B8A2B8B2BD9F00E94FE00009139
:10110000FF01109100022091010230910202601B48
:10111000710B820B930B009198031091990320910E
:101120009A0330919B036017710782079307C8F2F7
:101130000E94FE006093FF01709300028093010201
:1011400090930202E091A003F091A103309759F02F
:1011500040919C0350919D0360919E0370919F0369
:101160008B2D0995B82EE090FD01F090FE018B2D9E
:1011700090E0B0E0A0E08C839D83AE83BF83E11458
:10118000F10409F45EC0D7011C96DC901C97809195
:101190009603909197038436910510F41C961C9247
:1011A000D701ED91FC918280938019821A821B8273
:1011B000BB20A1F187010A5F1F4FF0E0E0E0D801FA
:1011C0002D918D01222331F11296AC90AA2011F1BC
:1011D00030E050E040E02F5F3F4F4F4F5F4F6C815A
:1011E0007D818E819F810E94A70B9B01AC018A2D7E
:1011F00090E0B0E0A0E0BC01CD016F5F7F4F8F4F6A
:101200009F4F0E94A70BA1E0B0E0AC0FBD1FAE0F37
:10121000BF1F8C933196E330F10589F609811A815D
:101220002B81F7014585568562817381C701F401E1
:101230000995D7011C96DC921C971496ED90FC90B2
:101240009ECF8091FB019091FC019C012F5F3F4F4D
:101250003093FC012093FB0149970CF466CE8FB7C5
:10126000F89400918D0310918E0320918F0330919B
:1012700090038FBF8091F7019091F801A091F9013F
:10128000B091FA01A9019801281B390B4A0B5B0B9D
:1012900021F421E030E040E050E0E091FB01F091EA
:1012A000FC0188EE93E0E89FB001E99F700DF89F84
:1012B000700D1124072E000C880B990B0E94520A06
:1012C00030939703209396031092FC011092FB0138
:1012D0002FB7F89480918D0390918E03A0918F0386
:1012E000B09190032FBF8093F7019093F801A093E2
:1012F000F901B093FA0119CE8F929F92AF92BF92EB
:10130000CF92DF92EF92FF92CF93DF93EC0168814F
:1013100079818A819B81611571058105910521F48F
:1013200064E279ED8BE597E02DE133EF41E050E0A9
:101330000E94200A49015A019B01AC01A7EAB1E4CD
:101340000E943F0A6B017C01ACEEB4EFA501940151
:101350000E944D0AC60ED71EE81EF91EF7FE06C0F3
:1013600081E0C81AD108E10880E8F80AC882D98269
:10137000EA82FB82C701B6019F77DF91CF91FF9090
:10138000EF90DF90CF90BF90AF909F908F90089597
:101390008F929F92AF92BF92CF92DF92EF92FF9285
:1013A0006091AA017091AB018091AC019091AD0167
:1013B000611571058105910521F464E279ED8BE5F4
:1013C00097E02DE133EF41E050E00E94200A49010F
:1013D0005A019B01AC01A7EAB1E40E943F0A6B01EC
:1013E0007C01ACEEB4EFA50194010E944D0AC60E3B
:1013F000D71EE81EF91EF7FE06C081E0C81AD10804
:10140000E10880E8F80AC092AA01D092AB01E0920C
:10141000AC01F092AD01C701B6019F77FF90EF904C
:10142000DF90CF90BF90AF909F908F900895609382
:10143000AA017093AB018093AC019093AD01089524
:10144000052E97FB1EF400940E94370A57FD07D023
:101450000E94520A07FC03D04EF40C94370A5095B0
:101460004095309521953F4F4F4F5F4F0895909590
:101470008095709561957F4F8F4F9F4F08950E9483
:10148000740AA59F900DB49F900DA49F800D911D8F
:1014900011240895B7FF0C943F0A0E943F0A821B53
:1014A000930B0895A1E21A2EAA1BBB1BFD010DC0D0
:1014B000AA1FBB1FEE1FFF1FA217B307E407F50704
:1014C00020F0A21BB30BE40BF50B661F771F881FE0
:1014D000991F1A9469F760957095809590959B0176
:1014E000AC01BD01CF010895A29FB001B39FC0011F
:1014F000A39F700D811D1124911DB29F700D811D40
:101500001124911D08955058BB27AA270E949B0AB9
:101510000C94440B0E94360B38F00E943D0B20F0D7
:1015200039F49F3F19F426F40C94330B0EF4E09534
:10153000E7FB0C942D0BE92F0E94550B58F3BA17BB
:10154000620773078407950720F079F4A6F50C94D9
:10155000770B0EF4E0950B2EBA2FA02D0B01B901DD
:1015600090010C01CA01A0011124FF27591B99F019
:10157000593F50F4503E68F11A16F040A22F232F25
:10158000342F4427585FF3CF469537952795A79575
:10159000F0405395C9F77EF41F16BA0B620B730B1C
:1015A000840BBAF09150A1F0FF0FBB1F661F771F8D
:1015B000881FC2F70EC0BA0F621F731F841F48F442
:1015C000879577956795B795F7959E3F08F0B0CFCB
:1015D0009395880F08F09927EE0F979587950895B2
:1015E000E89409C097FB3EF49095809570956195BD
:1015F0007F4F8F4F9F4F9923A9F0F92F96E9BB2773
:101600009395F695879577956795B795F111F8CFEE
:10161000FAF4BB0F11F460FF1BC06F5F7F4F8F4F59
:101620009F4F16C0882311F096E911C0772321F04F
:101630009EE8872F762F05C0662371F096E8862FE7
:1016400070E060E02AF09A95660F771F881FDAF73E
:10165000880F9695879597F9089597F99F6780E881
:1016600070E060E008959FEF80EC089500240A94F4
:101670001616170618060906089500240A9412166D
:101680001306140605060895092E0394000C11F4A0
:10169000882352F0BB0F40F4BF2B11F460FF04C04D
:1016A0006F5F7F4F8F4F9F4F089557FD9058440FA6
:1016B000551F59F05F3F71F04795880F97FB991FB1
:1016C00061F09F3F79F0879508951216130614066E
:1016D000551FF2CF4695F1DF08C0161617061806FB
:1016E000991FF1CF86957105610508940895E894D6
:1016F000BB2766277727CB0197F908950E94830BB4
:1017000008F48FEF0895990F0008550FAA0BE0E831
:10171000FEEF16161706E807F907C0F012161306B3
:10172000E407F50798F0621B730B840B950B39F4F3
:101730000A2661F0232B242B252B21F408950A2659
:1017400009F4A140A6958FEF811D811D0895DB014D
:101750008F939F930E943F0ABF91AF91A29F800DEC
:10176000911DA39F900DB29F900D1124089597FB9A
:10177000072E16F4009407D077FD09D00E94D20BF3
:1017800007FC05D03EF4909581959F4F0895709584
:1017900061957F4F08950E94740AB7FF0895821BD8
:1017A000930B0895AA1BBB1B51E107C0AA1FBB1FC7
:1017B000A617B70710F0A61BB70B881F991F5A95DD
:1017C000A9F780959095BC01CD010895EE0FFF1FFC
:1017D0000590F491E02D099481E090E0F8940C9448
:0617E000F10BF894FFCFAD
:1017E60001000500000005000100050000000000E2
:1017F60000000000000000000000000000000000E3
:1018060000000000000000000000000000000000D2
:1018160000000000000000000000000000000000C2
:1018260000000000000000000000000000000000B2
:1018360000000000000000000000000000000000A2
:101846000000000000000000000000000000000092
:101856000000000000000000000000000000000082
:101866000000000000000000000000000000000072
:101876000000000000000000000000000000000062
:10188600000000000200010000000100000000004E
:1018960000009004900490046F046B04C403680471
:1018A600000000002504C903C7036F046B04C403CA
:0418B60023016301A6
:00000001FF
