:100000000C9462000C948A000C948A000C948A0070
:100010000C948A000C948A000C948A000C948A0038
:100020000C948A000C948A000C948A000C948A0028
:100030000C948A000C948A000C948A000C948A0018
:100040000C94DF010C948A000C948A000C948A00B2
:100050000C948A000C948A000C948A000C948A00F8
:100060000C948A000C948A000000000024002700F1
:100070002A0000000000250028002B0000000000DE
:1000800023002600290004040404040404040202DA
:100090000202020203030303030301020408102007
:1000A0004080010204081020010204081020000012
:1000B0000008000201000003040700000000000027
:1000C0000000DC0411241FBECFEFD8E0DEBFCDBF9F
:1000D00011E0A0E0B1E0E6E4FFE002C005900D927F
:1000E000AE3AB107D9F722E0AEEAB1E001C01D9205
:1000F000A732B207E1F710E0C2E6D0E004C02197D2
:10010000FE010E949B07C136D107C9F70E94290250
:100110000C94A1070C940000833081F028F4813006
:1001200099F08230A9F008958730A9F08830C9F09D
:100130008430B1F4809180008F7D03C08091800075
:100140008F7780938000089584B58F7784BD08955C
:1001500084B58F7DFBCF8091B0008F778093B00006
:1001600008958091B0008F7DF9CFCF93DF93282F32
:1001700030E0F901E255FF4F8491F901E656FF4F57
:10018000D491F901EA57FF4FC491CC23A1F081111A
:100190000E948C00EC2FF0E0EE0FFF1FE458FF4FA1
:1001A000A591B491EC91ED2381E090E009F480E019
:1001B000DF91CF91089580E090E0FACF1F93CF9325
:1001C000DF93282F30E0F901E255FF4F8491F901C8
:1001D000E656FF4FD491F901EA57FF4FC491CC2363
:1001E000A9F0162F81110E948C00EC2FF0E0EE0F89
:1001F000FF1FEE58FF4FA591B4918FB7F894EC9183
:10020000111108C0D095DE23DC938FBFDF91CF9111
:100210001F910895DE2BF8CFCF93DF9390E0FC0180
:10022000E656FF4F24918A579F4FFC018491882303
:10023000D1F090E0880F991FFC01E859FF4FA5917C
:10024000B491FC01EE58FF4FC591D49161110EC0DD
:100250009FB7F8948C91E22FE0958E238C932881A0
:10026000E223E8839FBFDF91CF9108958FB7F89481
:10027000EC91E22BEC938FBFF6CF3FB7F8948091CF
:10028000CB019091CC01A091CD01B091CE0126B5CA
:10029000A89B05C02F3F19F00196A11DB11D3FBFBE
:1002A000BA2FA92F982F8827BC01CD01620F711D8D
:1002B000811D911D42E0660F771F881F991F4A9587
:1002C000D1F70895CF92DF92EF92FF920F931F9391
:1002D000CF93DF9300D0CDB7DEB769834A83880F11
:1002E000991F0091250210912602000F111FEFECBB
:1002F000F1E09F012F5C31402017310714F4119277
:10030000F8CF2981FC01E153FE4F21838A8180834C
:1003100060E0809123020E94DE001016110604F5B1
:1003200001501109F801E153FE4FE080D090210205
:10033000C0901F0288E0F82E6E2D661F6627661F8C
:100340008C2D0E94DE00EE0C61E08D2D0E94DE00FF
:1003500060E08D2D0E94DE00FA94F110EDCFDDCF2C
:1003600061E0809123020F900F90DF91CF911F9158
:100370000F91FF90EF90DF90CF900C94DE00EF9202
:10038000FF920F931F93CF937C018C0183E0000FAA
:10039000111F8A95E1F701521E4FC1E0F801119239
:1003A0008F0140E06C2FC7010E946201CF5FC9300E
:1003B000A9F7CF911F910F91FF90EF9008951F9291
:1003C0000F920FB60F9211242F933F938F939F9309
:1003D000AF93BF938091C7019091C801A091C901CB
:1003E000B091CA013091C60123E0230F2D3758F593
:1003F0000196A11DB11D2093C6018093C701909362
:10040000C801A093C901B093CA018091CB0190911A
:10041000CC01A091CD01B091CE010196A11DB11DDD
:100420008093CB019093CC01A093CD01B093CE01EA
:10043000BF91AF919F918F913F912F910F900FBEE0
:100440000F901F90189526E8230F0296A11DB11D4D
:10045000D2CF789484B5826084BD84B5816084BD38
:1004600085B5826085BD85B5816085BD80916E0052
:10047000816080936E001092810080918100826083
:1004800080938100809181008160809381008091C0
:1004900080008160809380008091B10084608093AF
:1004A000B1008091B00081608093B00080917A00AB
:1004B000846080937A0080917A00826080937A00D1
:1004C00080917A00816080937A0080917A008068C0
:1004D00080937A001092C1008091250290912602AB
:1004E0001816190634F441E06CE090E080E00E94B8
:1004F000620180912502909126021816190634F4A3
:1005000048E06AE090E080E00E946201809125026C
:10051000909126021816190624F490E080E00E94BB
:10052000BF0160E080E00E940C0160E081E00E9479
:100530000C0160E082E00E940C0160E083E00E9418
:100540000C0168E0862E912CA12CB12C222423943E
:10055000312C2FB7F8946091C7017091C801809138
:10056000C9019091CA012FBF0E94E4062B013C01F2
:100570002091AE013091AF014091B0015091B10195
:100580000E9477064092AE015092AF016092B00196
:100590007092B1012091C2013091C3014091C40118
:1005A0005091C5010E9478062B013C014092C20186
:1005B0005092C3016092C4017092C50180E00E9414
:1005C000B500EC0181E00E94B5007C0182E00E9450
:1005D000B5008C0183E00E94B500019709F05AC074
:1005E0008091A8019091A901892B09F065C0109212
:1005F000A7011092A6018FEF9FEF9093A90180931E
:10060000A8012BEA3AEA46EA53E4C301B2010E9488
:10061000720718160CF0FDC01092C2011092C301AF
:100620001092C4011092C5011092B8011092B90144
:100630001092BA011092BB011092BC011092BD0140
:100640001092BE011092BF010091000110910101B2
:100650008091A6019091A701080F191FC091020176
:10066000D09103018091A8019091A901C80FD91FD1
:100670000830110509F445C00F3F100709F4F3C015
:10068000C830D10509F4F2C0CF3FDC07E1F5C7E07F
:10069000D0E039C00130110579F48091A801909122
:1006A000A901892B49F41092A7011092A601109379
:1006B000A9010093A801A5CFEA94EF2891F48091B5
:1006C000A6019091A701892B09F09BCFAFEFBFEF57
:1006D000B093A701A093A6011092A9011092A801BE
:1006E00090CFC130D10509F08CCF8091A6019091B7
:1006F000A701892B09F085CFD093A701C093A6014C
:10070000EBCF10E000E08091A4019091A50150E0B2
:10071000E52E51E0F52EF70130E020E028173907EB
:100720000CF0ABC0448155814017510709F0A1C0BE
:10073000468157814C175D0709F09BC03093B70184
:100740002093B6010E943D012B013C0148EEC42ECE
:1007500043E0D42EE12CF12C0E943D01641975096F
:1007600086099709683E734081059105A8F3F1E079
:10077000CF1AD108E108F10828EE420E23E0521EFC
:10078000611C711CC114D104E104F10429F7A4E037
:10079000B1E0E6EA1D92EA95E9F730920101209274
:1007A000000185E090E09093030180930201909313
:1007B000070180930601309209012092080190936D
:1007C0000B0180930A01A2E0B0E0B093A501A093D1
:1007D000A4013092A7012092A6010E94BC052B0122
:1007E0003C010E94BC057B018C01C301B201A50143
:1007F00094010E9414067093B3016093B201C80182
:10080000B701A50194010E9414067093B50160938D
:10081000B4011092C1011092C001C091C001D091E9
:10082000C101C830D1050CF0BFC080912502909164
:100830002602181619068CF4C830D10570F4FE0192
:10084000E854FE4F4081FE01E153FE4F408B6C2F78
:100850006F5F90E080E00E9462012196D093C10119
:10086000C093C001DACF07E010E04DCFD0E0C0E088
:100870004ACF2F5F3F4F349651CF3093B70120932B
:10088000B6012091B2013091B3010217130709F0AC
:100890005CC02091B4013091B501C217D30709F0B3
:1008A00054C001969093A5018093A4010E94BC05B9
:1008B000A50194010E9414067093B3016093B201E4
:1008C0000E94BC05A50194010E9414067093B50115
:1008D0006093B4018091A4019091A501FC01EE0FF9
:1008E000FF1FEE0FFF1FE050FF4F11830083FC013D
:1008F000EE0FFF1FEE0FFF1FE450FF4FD783C6839D
:100900001093010100930001D0930301C0930201F1
:1009100030E020E0B4E0EB0EF11C281739074CF56D
:10092000D701ED91FC911197E854FE4F40E850E05B
:1009300012960C9002C0559547950A94E2F75081A3
:10094000452B40832F5F3F4FE5CFE0E0F1E030E003
:1009500020E02F5F3F4F3496281739070CF0BACFAD
:10096000448155815183408346815781538342831B
:10097000F0CF97FF02C090E080E09093B7018093A2
:10098000B601E091B201F091B301E854FE4F80E866
:1009900090E00090B40102C0959587950A94E2F723
:1009A0009081892B808335CFE0E0F0E0EF2B09F4D4
:1009B000D0CD0E940000CDCDCF92DF92EF92FF927A
:1009C000CF93DF93CBE0D0E0D0932002C0931F02FF
:1009D0008DE090E090932202809321028AE090E0E3
:1009E000909324028093230281E090E0909326026A
:1009F0008093250261E08BE00E940C0161E0809110
:100A000021020E940C0161E0809123020E940C01EE
:100A100061E0809123020E94DE00D0932002C09307
:100A20001F02EFEDF1E08FE192E011928E179F0728
:100A3000E1F7D0E0C0E08091250290912602C8172E
:100A4000D90774F540E06FE0CE010E946201809109
:100A5000250290912602C817D9072CF447E06BE0D5
:100A6000CE010E94620140E069E0CE010E94620175
:100A70008091250290912602C817D9071CF4CE0157
:100A80000E94BF018091250290912602C817D907C4
:100A90002CF440E06CE0CE010E9462012196CBCFA5
:100AA0000E94BC0528E0C22ED12CE12CF12CA7011C
:100AB00096010E9414067093B3016093B2010E94E4
:100AC000BC05A70196010E9414067093B5016093BE
:100AD000B401DF91CF91FF90EF90DF90CF90089518
:100AE0008F929F92AF92BF92CF92DF92EF92FF923E
:100AF000CF93DF93EC01688179818A819B816115B5
:100B000071058105910521F464E279ED8BE597E0AB
:100B10002DE133EF41E050E00E94140649015A01F3
:100B20009B01AC01A7EAB1E40E9433066B017C0192
:100B3000ACEEB4EFA50194010E944106C60ED71E8B
:100B4000E81EF91EF7FE06C081E0C81AD108E108C8
:100B500080E8F80AC882D982EA82FB82C701B6011E
:100B60009F77DF91CF91FF90EF90DF90CF90BF9074
:100B7000AF909F908F9008958F929F92AF92BF9267
:100B8000CF92DF92EF92FF926091AA017091AB0138
:100B90008091AC019091AD016115710581059105C0
:100BA00021F464E279ED8BE597E02DE133EF41E04C
:100BB00050E00E94140649015A019B01AC01A7EACA
:100BC000B1E40E9433066B017C01ACEEB4EFA501E9
:100BD00094010E944106C60ED71EE81EF91EF7FEBC
:100BE00006C081E0C81AD108E10880E8F80AC0927E
:100BF000AA01D092AB01E092AC01F092AD01C70125
:100C0000B6019F77FF90EF90DF90CF90BF90AF90AD
:100C10009F908F9008956093AA017093AB01809389
:100C2000AC019093AD010895052E97FB1EF400943E
:100C30000E942B0657FD07D00E94460607FC03D0F2
:100C40004EF40C942B0650954095309521953F4FCE
:100C50004F4F5F4F089590958095709561957F4FA8
:100C60008F4F9F4F08950E946806A59F900DB49FD7
:100C7000900DA49F800D911D11240895B7FF0C9431
:100C800033060E943306821B930B0895A1E21A2EAD
:100C9000AA1BBB1BFD010DC0AA1FBB1FEE1FFF1F20
:100CA000A217B307E407F50720F0A21BB30BE40B70
:100CB000F50B661F771F881F991F1A9469F76095B7
:100CC0007095809590959B01AC01BD01CF01089571
:100CD000A29FB001B39FC001A39F700D811D11247D
:100CE000911DB29F700D811D1124911D08955058C2
:100CF000BB27AA270E948F060C9438070E942A0758
:100D000038F00E94310720F039F49F3F19F426F49F
:100D10000C9427070EF4E095E7FB0C942107E92FCC
:100D20000E94490758F3BA176207730784079507AB
:100D300020F079F4A6F50C946B070EF4E0950B2ED9
:100D4000BA2FA02D0B01B90190010C01CA01A0011D
:100D50001124FF27591B99F0593F50F4503E68F178
:100D60001A16F040A22F232F342F4427585FF3CFB9
:100D7000469537952795A795F0405395C9F77EF48A
:100D80001F16BA0B620B730B840BBAF09150A1F0D3
:100D9000FF0FBB1F661F771F881FC2F70EC0BA0F59
:100DA000621F731F841F48F4879577956795B795E1
:100DB000F7959E3F08F0B0CF9395880F08F09927DC
:100DC000EE0F979587950895E89409C097FB3EF438
:100DD00090958095709561957F4F8F4F9F4F992388
:100DE000A9F0F92F96E9BB279395F6958795779506
:100DF0006795B795F111F8CFFAF4BB0F11F460FFC6
:100E00001BC06F5F7F4F8F4F9F4F16C0882311F01D
:100E100096E911C0772321F09EE8872F762F05C031
:100E2000662371F096E8862F70E060E02AF09A95CC
:100E3000660F771F881FDAF7880F9695879597F9C1
:100E4000089597F99F6780E870E060E008959FEF4C
:100E500080EC089500240A94161617061806090651
:100E6000089500240A941216130614060506089520
:100E7000092E0394000C11F4882352F0BB0F40F4A8
:100E8000BF2B11F460FF04C06F5F7F4F8F4F9F4FE8
:100E9000089557FD9058440F551F59F05F3F71F06A
:100EA0004795880F97FB991F61F09F3F79F08795D1
:100EB0000895121613061406551FF2CF4695F1DF5A
:100EC00008C0161617061806991FF1CF86957105EA
:100ED000610508940895E894BB2766277727CB011E
:100EE00097F908950E94770708F48FEF0895990FF6
:100EF0000008550FAA0BE0E8FEEF16161706E807E4
:100F0000F907C0F012161306E407F50798F0621B04
:100F1000730B840B950B39F40A2661F0232B242BD9
:100F2000252B21F408950A2609F4A140A6958FEFF8
:100F3000811D811D0895EE0FFF1F0590F491E02D96
:060F40000994F894FFCFB4
:100F4600010005000000050001000500000000008A
:100F5600000000000000000000000000000000008B
:100F6600000000000000000000000000000000007B
:100F7600000000000000000000000000000000006B
:100F8600000000000000000000000000000000005B
:100F9600000000000000000000000000000000004B
:100FA600000000000000000000000000000000003B
:100FB600000000000000000000000000000000002B
:100FC600000000000000000000000000000000001B
:100FD600000000000000000000000000000000000B
:0E0FE6000000000002000100000001000000F9
:00000001FF
